{
  "contractName": "EventTicketNFT",
  "abi": [
    {
      "inputs": [
        {
          "internalType": "string",
          "name": "_eventName",
          "type": "string"
        },
        {
          "internalType": "string",
          "name": "_symbol",
          "type": "string"
        },
        {
          "internalType": "string",
          "name": "_descriptionURI",
          "type": "string"
        },
        {
          "internalType": "string",
          "name": "_eventURI",
          "type": "string"
        },
        {
          "internalType": "uint64",
          "name": "_ticketSupply",
          "type": "uint64"
        },
        {
          "internalType": "uint256",
          "name": "_ticketPrice",
          "type": "uint256"
        }
      ],
      "stateMutability": "nonpayable",
      "type": "constructor"
    },
    {
      "anonymous": false,
      "inputs": [
        {
          "indexed": true,
          "internalType": "address",
          "name": "owner",
          "type": "address"
        },
        {
          "indexed": true,
          "internalType": "address",
          "name": "approved",
          "type": "address"
        },
        {
          "indexed": true,
          "internalType": "uint256",
          "name": "tokenId",
          "type": "uint256"
        }
      ],
      "name": "Approval",
      "type": "event"
    },
    {
      "anonymous": false,
      "inputs": [
        {
          "indexed": true,
          "internalType": "address",
          "name": "owner",
          "type": "address"
        },
        {
          "indexed": true,
          "internalType": "address",
          "name": "operator",
          "type": "address"
        },
        {
          "indexed": false,
          "internalType": "bool",
          "name": "approved",
          "type": "bool"
        }
      ],
      "name": "ApprovalForAll",
      "type": "event"
    },
    {
      "anonymous": false,
      "inputs": [
        {
          "indexed": false,
          "internalType": "address",
          "name": "_by",
          "type": "address"
        },
        {
          "indexed": false,
          "internalType": "address",
          "name": "_to",
          "type": "address"
        },
        {
          "indexed": false,
          "internalType": "uint256",
          "name": "_amount",
          "type": "uint256"
        }
      ],
      "name": "BalanceWithdrawn",
      "type": "event"
    },
    {
      "anonymous": false,
      "inputs": [
        {
          "indexed": true,
          "internalType": "address",
          "name": "previousOwner",
          "type": "address"
        },
        {
          "indexed": true,
          "internalType": "address",
          "name": "newOwner",
          "type": "address"
        }
      ],
      "name": "OwnershipTransferred",
      "type": "event"
    },
    {
      "anonymous": false,
      "inputs": [
        {
          "indexed": true,
          "internalType": "address",
          "name": "from",
          "type": "address"
        },
        {
          "indexed": true,
          "internalType": "address",
          "name": "to",
          "type": "address"
        },
        {
          "indexed": true,
          "internalType": "uint256",
          "name": "tokenId",
          "type": "uint256"
        }
      ],
      "name": "Transfer",
      "type": "event"
    },
    {
      "inputs": [
        {
          "internalType": "address",
          "name": "to",
          "type": "address"
        },
        {
          "internalType": "uint256",
          "name": "tokenId",
          "type": "uint256"
        }
      ],
      "name": "approve",
      "outputs": [],
      "stateMutability": "nonpayable",
      "type": "function"
    },
    {
      "inputs": [
        {
          "internalType": "address",
          "name": "owner",
          "type": "address"
        }
      ],
      "name": "balanceOf",
      "outputs": [
        {
          "internalType": "uint256",
          "name": "",
          "type": "uint256"
        }
      ],
      "stateMutability": "view",
      "type": "function"
    },
    {
      "inputs": [
        {
          "internalType": "uint256",
          "name": "tokenId",
          "type": "uint256"
        }
      ],
      "name": "getApproved",
      "outputs": [
        {
          "internalType": "address",
          "name": "",
          "type": "address"
        }
      ],
      "stateMutability": "view",
      "type": "function"
    },
    {
      "inputs": [
        {
          "internalType": "address",
          "name": "owner",
          "type": "address"
        },
        {
          "internalType": "address",
          "name": "operator",
          "type": "address"
        }
      ],
      "name": "isApprovedForAll",
      "outputs": [
        {
          "internalType": "bool",
          "name": "",
          "type": "bool"
        }
      ],
      "stateMutability": "view",
      "type": "function"
    },
    {
      "inputs": [],
      "name": "name",
      "outputs": [
        {
          "internalType": "string",
          "name": "",
          "type": "string"
        }
      ],
      "stateMutability": "view",
      "type": "function"
    },
    {
      "inputs": [],
      "name": "owner",
      "outputs": [
        {
          "internalType": "address",
          "name": "",
          "type": "address"
        }
      ],
      "stateMutability": "view",
      "type": "function"
    },
    {
      "inputs": [
        {
          "internalType": "uint256",
          "name": "tokenId",
          "type": "uint256"
        }
      ],
      "name": "ownerOf",
      "outputs": [
        {
          "internalType": "address",
          "name": "",
          "type": "address"
        }
      ],
      "stateMutability": "view",
      "type": "function"
    },
    {
      "inputs": [],
      "name": "renounceOwnership",
      "outputs": [],
      "stateMutability": "nonpayable",
      "type": "function"
    },
    {
      "inputs": [
        {
          "internalType": "address",
          "name": "from",
          "type": "address"
        },
        {
          "internalType": "address",
          "name": "to",
          "type": "address"
        },
        {
          "internalType": "uint256",
          "name": "tokenId",
          "type": "uint256"
        }
      ],
      "name": "safeTransferFrom",
      "outputs": [],
      "stateMutability": "nonpayable",
      "type": "function"
    },
    {
      "inputs": [
        {
          "internalType": "address",
          "name": "from",
          "type": "address"
        },
        {
          "internalType": "address",
          "name": "to",
          "type": "address"
        },
        {
          "internalType": "uint256",
          "name": "tokenId",
          "type": "uint256"
        },
        {
          "internalType": "bytes",
          "name": "_data",
          "type": "bytes"
        }
      ],
      "name": "safeTransferFrom",
      "outputs": [],
      "stateMutability": "nonpayable",
      "type": "function"
    },
    {
      "inputs": [
        {
          "internalType": "address",
          "name": "operator",
          "type": "address"
        },
        {
          "internalType": "bool",
          "name": "approved",
          "type": "bool"
        }
      ],
      "name": "setApprovalForAll",
      "outputs": [],
      "stateMutability": "nonpayable",
      "type": "function"
    },
    {
      "inputs": [
        {
          "internalType": "bytes4",
          "name": "interfaceId",
          "type": "bytes4"
        }
      ],
      "name": "supportsInterface",
      "outputs": [
        {
          "internalType": "bool",
          "name": "",
          "type": "bool"
        }
      ],
      "stateMutability": "view",
      "type": "function"
    },
    {
      "inputs": [],
      "name": "symbol",
      "outputs": [
        {
          "internalType": "string",
          "name": "",
          "type": "string"
        }
      ],
      "stateMutability": "view",
      "type": "function"
    },
    {
      "inputs": [
        {
          "internalType": "uint256",
          "name": "tokenId",
          "type": "uint256"
        }
      ],
      "name": "tokenURI",
      "outputs": [
        {
          "internalType": "string",
          "name": "",
          "type": "string"
        }
      ],
      "stateMutability": "view",
      "type": "function"
    },
    {
      "inputs": [
        {
          "internalType": "address",
          "name": "from",
          "type": "address"
        },
        {
          "internalType": "address",
          "name": "to",
          "type": "address"
        },
        {
          "internalType": "uint256",
          "name": "tokenId",
          "type": "uint256"
        }
      ],
      "name": "transferFrom",
      "outputs": [],
      "stateMutability": "nonpayable",
      "type": "function"
    },
    {
      "inputs": [
        {
          "internalType": "address",
          "name": "newOwner",
          "type": "address"
        }
      ],
      "name": "transferOwnership",
      "outputs": [],
      "stateMutability": "nonpayable",
      "type": "function"
    },
    {
      "inputs": [],
      "name": "buyEventTicket",
      "outputs": [],
      "stateMutability": "payable",
      "type": "function"
    },
    {
      "inputs": [],
      "name": "getStatus",
      "outputs": [
        {
          "internalType": "bool",
          "name": "",
          "type": "bool"
        }
      ],
      "stateMutability": "view",
      "type": "function"
    },
    {
      "inputs": [],
      "name": "withdrawBalance",
      "outputs": [],
      "stateMutability": "nonpayable",
      "type": "function"
    }
  ],
  "bytecode": "0x60806040523480156200001157600080fd5b5060405162003c0638038062003c06833981810160405281019062000037919062000513565b858581600090805190602001906200005192919062000246565b5080600190805190602001906200006a92919062000246565b505050600160078190555062000095620000896200017860201b60201c565b6200018060201b60201c565b8560099080519060200190620000ad92919062000246565b5083600a9080519060200190620000c692919062000246565b5082600b9080519060200190620000df92919062000246565b5081600c60006101000a81548167ffffffffffffffff021916908367ffffffffffffffff16021790555080600d819055506000600e60006101000a81548160ff02191690831515021790555033600e60016101000a81548173ffffffffffffffffffffffffffffffffffffffff021916908373ffffffffffffffffffffffffffffffffffffffff16021790555050505050505062000690565b600033905090565b6000600860009054906101000a900473ffffffffffffffffffffffffffffffffffffffff16905081600860006101000a81548173ffffffffffffffffffffffffffffffffffffffff021916908373ffffffffffffffffffffffffffffffffffffffff1602179055508173ffffffffffffffffffffffffffffffffffffffff168173ffffffffffffffffffffffffffffffffffffffff167f8be0079c531659141344cd1fd0a4f28419497f9722a3daafe3b4186f6b6457e060405160405180910390a35050565b82805462000254906200065a565b90600052602060002090601f016020900481019282620002785760008555620002c4565b82601f106200029357805160ff1916838001178555620002c4565b82800160010185558215620002c4579182015b82811115620002c3578251825591602001919060010190620002a6565b5b509050620002d39190620002d7565b5090565b5b80821115620002f2576000816000905550600101620002d8565b5090565b6000604051905090565b600080fd5b600080fd5b600080fd5b600080fd5b6000601f19601f8301169050919050565b7f4e487b7100000000000000000000000000000000000000000000000000000000600052604160045260246000fd5b6200035f8262000314565b810181811067ffffffffffffffff8211171562000381576200038062000325565b5b80604052505050565b600062000396620002f6565b9050620003a4828262000354565b919050565b600067ffffffffffffffff821115620003c757620003c662000325565b5b620003d28262000314565b9050602081019050919050565b60005b83811015620003ff578082015181840152602081019050620003e2565b838111156200040f576000848401525b50505050565b60006200042c6200042684620003a9565b6200038a565b9050828152602081018484840111156200044b576200044a6200030f565b5b62000458848285620003df565b509392505050565b600082601f8301126200047857620004776200030a565b5b81516200048a84826020860162000415565b91505092915050565b600067ffffffffffffffff82169050919050565b620004b28162000493565b8114620004be57600080fd5b50565b600081519050620004d281620004a7565b92915050565b6000819050919050565b620004ed81620004d8565b8114620004f957600080fd5b50565b6000815190506200050d81620004e2565b92915050565b60008060008060008060c0878903121562000533576200053262000300565b5b600087015167ffffffffffffffff81111562000554576200055362000305565b5b6200056289828a0162000460565b965050602087015167ffffffffffffffff81111562000586576200058562000305565b5b6200059489828a0162000460565b955050604087015167ffffffffffffffff811115620005b857620005b762000305565b5b620005c689828a0162000460565b945050606087015167ffffffffffffffff811115620005ea57620005e962000305565b5b620005f889828a0162000460565b93505060806200060b89828a01620004c1565b92505060a06200061e89828a01620004fc565b9150509295509295509295565b7f4e487b7100000000000000000000000000000000000000000000000000000000600052602260045260246000fd5b600060028204905060018216806200067357607f821691505b602082108114156200068a57620006896200062b565b5b50919050565b61356680620006a06000396000f3fe6080604052600436106101145760003560e01c80636bc6e98a116100a0578063a22cb46511610064578063a22cb4651461036c578063b88d4fde14610395578063c87b56dd146103be578063e985e9c5146103fb578063f2fde38b1461043857610114565b80636bc6e98a146102b857806370a08231146102c2578063715018a6146102ff5780638da5cb5b1461031657806395d89b411461034157610114565b806323b872dd116100e757806323b872dd146101e757806342842e0e146102105780634e69d560146102395780635fd8c710146102645780636352211e1461027b57610114565b806301ffc9a71461011957806306fdde0314610156578063081812fc14610181578063095ea7b3146101be575b600080fd5b34801561012557600080fd5b50610140600480360381019061013b91906120ed565b610461565b60405161014d9190612135565b60405180910390f35b34801561016257600080fd5b5061016b610543565b60405161017891906121e9565b60405180910390f35b34801561018d57600080fd5b506101a860048036038101906101a39190612241565b6105d5565b6040516101b591906122af565b60405180910390f35b3480156101ca57600080fd5b506101e560048036038101906101e091906122f6565b61065a565b005b3480156101f357600080fd5b5061020e60048036038101906102099190612336565b610772565b005b34801561021c57600080fd5b5061023760048036038101906102329190612336565b6107d2565b005b34801561024557600080fd5b5061024e6107f2565b60405161025b9190612135565b60405180910390f35b34801561027057600080fd5b50610279610809565b005b34801561028757600080fd5b506102a2600480360381019061029d9190612241565b610953565b6040516102af91906122af565b60405180910390f35b6102c0610a05565b005b3480156102ce57600080fd5b506102e960048036038101906102e49190612389565b610c70565b6040516102f691906123c5565b60405180910390f35b34801561030b57600080fd5b50610314610d28565b005b34801561032257600080fd5b5061032b610db0565b60405161033891906122af565b60405180910390f35b34801561034d57600080fd5b50610356610dda565b60405161036391906121e9565b60405180910390f35b34801561037857600080fd5b50610393600480360381019061038e919061240c565b610e6c565b005b3480156103a157600080fd5b506103bc60048036038101906103b79190612581565b610e82565b005b3480156103ca57600080fd5b506103e560048036038101906103e09190612241565b610ee4565b6040516103f291906121e9565b60405180910390f35b34801561040757600080fd5b50610422600480360381019061041d9190612604565b611036565b60405161042f9190612135565b60405180910390f35b34801561044457600080fd5b5061045f600480360381019061045a9190612389565b6110ca565b005b60007f80ac58cd000000000000000000000000000000000000000000000000000000007bffffffffffffffffffffffffffffffffffffffffffffffffffffffff1916827bffffffffffffffffffffffffffffffffffffffffffffffffffffffff1916148061052c57507f5b5e139f000000000000000000000000000000000000000000000000000000007bffffffffffffffffffffffffffffffffffffffffffffffffffffffff1916827bffffffffffffffffffffffffffffffffffffffffffffffffffffffff1916145b8061053c575061053b826111c2565b5b9050919050565b60606000805461055290612673565b80601f016020809104026020016040519081016040528092919081815260200182805461057e90612673565b80156105cb5780601f106105a0576101008083540402835291602001916105cb565b820191906000526020600020905b8154815290600101906020018083116105ae57829003601f168201915b5050505050905090565b60006105e08261122c565b61061f576040517f08c379a000000000000000000000000000000000000000000000000000000000815260040161061690612717565b60405180910390fd5b6004600083815260200190815260200160002060009054906101000a900473ffffffffffffffffffffffffffffffffffffffff169050919050565b600061066582610953565b90508073ffffffffffffffffffffffffffffffffffffffff168373ffffffffffffffffffffffffffffffffffffffff1614156106d6576040517f08c379a00000000000000000000000000000000000000000000000000000000081526004016106cd906127a9565b60405180910390fd5b8073ffffffffffffffffffffffffffffffffffffffff166106f5611298565b73ffffffffffffffffffffffffffffffffffffffff16148061072457506107238161071e611298565b611036565b5b610763576040517f08c379a000000000000000000000000000000000000000000000000000000000815260040161075a9061283b565b60405180910390fd5b61076d83836112a0565b505050565b61078361077d611298565b82611359565b6107c2576040517f08c379a00000000000000000000000000000000000000000000000000000000081526004016107b9906128cd565b60405180910390fd5b6107cd838383611437565b505050565b6107ed83838360405180602001604052806000815250610e82565b505050565b6000600e60009054906101000a900460ff16905090565b610811611298565b73ffffffffffffffffffffffffffffffffffffffff1661082f610db0565b73ffffffffffffffffffffffffffffffffffffffff1614610885576040517f08c379a000000000000000000000000000000000000000000000000000000000815260040161087c90612939565b60405180910390fd5b6000479050600e60019054906101000a900473ffffffffffffffffffffffffffffffffffffffff1673ffffffffffffffffffffffffffffffffffffffff166108fc829081150290604051600060405180830381858888f193505050501580156108f2573d6000803e3d6000fd5b507f50630162af2fe1b3638257703351230fbe331ec0b7368aba0eb78f2dabd03c0c33600e60019054906101000a900473ffffffffffffffffffffffffffffffffffffffff1683604051610948939291906129b8565b60405180910390a150565b6000806002600084815260200190815260200160002060009054906101000a900473ffffffffffffffffffffffffffffffffffffffff169050600073ffffffffffffffffffffffffffffffffffffffff168173ffffffffffffffffffffffffffffffffffffffff1614156109fc576040517f08c379a00000000000000000000000000000000000000000000000000000000081526004016109f390612a61565b60405180910390fd5b80915050919050565b600e60009054906101000a900460ff1615610a55576040517f08c379a0000000000000000000000000000000000000000000000000000000008152600401610a4c90612acd565b60405180910390fd5b60026007541415610a9b576040517f08c379a0000000000000000000000000000000000000000000000000000000008152600401610a9290612b39565b60405180910390fd5b6002600781905550600d54341015610ae8576040517f08c379a0000000000000000000000000000000000000000000000000000000008152600401610adf90612ba5565b60405180910390fd5b600d54341115610b545760003390508073ffffffffffffffffffffffffffffffffffffffff166108fc610b26600d543461169e90919063ffffffff16565b9081150290604051600060405180830381858888f19350505050158015610b51573d6000803e3d6000fd5b50505b600f6000815480929190610b6790612bf4565b919050555060006001600f54610b7d9190612c3d565b9050600c60009054906101000a900467ffffffffffffffff1667ffffffffffffffff16811115610bc3576001600e60006101000a81548160ff0219169083151502179055505b610bcf33600f546116b4565b610c65600f54600b8054610be290612673565b80601f0160208091040260200160405190810160405280929190818152602001828054610c0e90612673565b8015610c5b5780601f10610c3057610100808354040283529160200191610c5b565b820191906000526020600020905b815481529060010190602001808311610c3e57829003601f168201915b50505050506116d2565b506001600781905550565b60008073ffffffffffffffffffffffffffffffffffffffff168273ffffffffffffffffffffffffffffffffffffffff161415610ce1576040517f08c379a0000000000000000000000000000000000000000000000000000000008152600401610cd890612d05565b60405180910390fd5b600360008373ffffffffffffffffffffffffffffffffffffffff1673ffffffffffffffffffffffffffffffffffffffff168152602001908152602001600020549050919050565b610d30611298565b73ffffffffffffffffffffffffffffffffffffffff16610d4e610db0565b73ffffffffffffffffffffffffffffffffffffffff1614610da4576040517f08c379a0000000000000000000000000000000000000000000000000000000008152600401610d9b90612939565b60405180910390fd5b610dae6000611746565b565b6000600860009054906101000a900473ffffffffffffffffffffffffffffffffffffffff16905090565b606060018054610de990612673565b80601f0160208091040260200160405190810160405280929190818152602001828054610e1590612673565b8015610e625780601f10610e3757610100808354040283529160200191610e62565b820191906000526020600020905b815481529060010190602001808311610e4557829003601f168201915b5050505050905090565b610e7e610e77611298565b838361180c565b5050565b610e93610e8d611298565b83611359565b610ed2576040517f08c379a0000000000000000000000000000000000000000000000000000000008152600401610ec9906128cd565b60405180910390fd5b610ede84848484611979565b50505050565b6060610eef8261122c565b610f2e576040517f08c379a0000000000000000000000000000000000000000000000000000000008152600401610f2590612d97565b60405180910390fd5b6000600660008481526020019081526020016000208054610f4e90612673565b80601f0160208091040260200160405190810160405280929190818152602001828054610f7a90612673565b8015610fc75780601f10610f9c57610100808354040283529160200191610fc7565b820191906000526020600020905b815481529060010190602001808311610faa57829003601f168201915b505050505090506000610fd86119d5565b9050600081511415610fee578192505050611031565b60008251111561102357808260405160200161100b929190612df3565b60405160208183030381529060405292505050611031565b61102c846119ec565b925050505b919050565b6000600560008473ffffffffffffffffffffffffffffffffffffffff1673ffffffffffffffffffffffffffffffffffffffff16815260200190815260200160002060008373ffffffffffffffffffffffffffffffffffffffff1673ffffffffffffffffffffffffffffffffffffffff16815260200190815260200160002060009054906101000a900460ff16905092915050565b6110d2611298565b73ffffffffffffffffffffffffffffffffffffffff166110f0610db0565b73ffffffffffffffffffffffffffffffffffffffff1614611146576040517f08c379a000000000000000000000000000000000000000000000000000000000815260040161113d90612939565b60405180910390fd5b600073ffffffffffffffffffffffffffffffffffffffff168173ffffffffffffffffffffffffffffffffffffffff1614156111b6576040517f08c379a00000000000000000000000000000000000000000000000000000000081526004016111ad90612e89565b60405180910390fd5b6111bf81611746565b50565b60007f01ffc9a7000000000000000000000000000000000000000000000000000000007bffffffffffffffffffffffffffffffffffffffffffffffffffffffff1916827bffffffffffffffffffffffffffffffffffffffffffffffffffffffff1916149050919050565b60008073ffffffffffffffffffffffffffffffffffffffff166002600084815260200190815260200160002060009054906101000a900473ffffffffffffffffffffffffffffffffffffffff1673ffffffffffffffffffffffffffffffffffffffff1614159050919050565b600033905090565b816004600083815260200190815260200160002060006101000a81548173ffffffffffffffffffffffffffffffffffffffff021916908373ffffffffffffffffffffffffffffffffffffffff160217905550808273ffffffffffffffffffffffffffffffffffffffff1661131383610953565b73ffffffffffffffffffffffffffffffffffffffff167f8c5be1e5ebec7d5bd14f71427d1e84f3dd0314c0f7b2291e5b200ac8c7c3b92560405160405180910390a45050565b60006113648261122c565b6113a3576040517f08c379a000000000000000000000000000000000000000000000000000000000815260040161139a90612f1b565b60405180910390fd5b60006113ae83610953565b90508073ffffffffffffffffffffffffffffffffffffffff168473ffffffffffffffffffffffffffffffffffffffff1614806113f057506113ef8185611036565b5b8061142e57508373ffffffffffffffffffffffffffffffffffffffff16611416846105d5565b73ffffffffffffffffffffffffffffffffffffffff16145b91505092915050565b8273ffffffffffffffffffffffffffffffffffffffff1661145782610953565b73ffffffffffffffffffffffffffffffffffffffff16146114ad576040517f08c379a00000000000000000000000000000000000000000000000000000000081526004016114a490612fad565b60405180910390fd5b600073ffffffffffffffffffffffffffffffffffffffff168273ffffffffffffffffffffffffffffffffffffffff16141561151d576040517f08c379a00000000000000000000000000000000000000000000000000000000081526004016115149061303f565b60405180910390fd5b611528838383611a93565b6115336000826112a0565b6001600360008573ffffffffffffffffffffffffffffffffffffffff1673ffffffffffffffffffffffffffffffffffffffff1681526020019081526020016000206000828254611583919061305f565b925050819055506001600360008473ffffffffffffffffffffffffffffffffffffffff1673ffffffffffffffffffffffffffffffffffffffff16815260200190815260200160002060008282546115da9190612c3d565b92505081905550816002600083815260200190815260200160002060006101000a81548173ffffffffffffffffffffffffffffffffffffffff021916908373ffffffffffffffffffffffffffffffffffffffff160217905550808273ffffffffffffffffffffffffffffffffffffffff168473ffffffffffffffffffffffffffffffffffffffff167fddf252ad1be2c89b69c2b068fc378daa952ba7f163c4a11628f55a4df523b3ef60405160405180910390a4611699838383611a98565b505050565b600081836116ac919061305f565b905092915050565b6116ce828260405180602001604052806000815250611a9d565b5050565b6116db8261122c565b61171a576040517f08c379a000000000000000000000000000000000000000000000000000000000815260040161171190613105565b60405180910390fd5b80600660008481526020019081526020016000209080519060200190611741929190611fde565b505050565b6000600860009054906101000a900473ffffffffffffffffffffffffffffffffffffffff16905081600860006101000a81548173ffffffffffffffffffffffffffffffffffffffff021916908373ffffffffffffffffffffffffffffffffffffffff1602179055508173ffffffffffffffffffffffffffffffffffffffff168173ffffffffffffffffffffffffffffffffffffffff167f8be0079c531659141344cd1fd0a4f28419497f9722a3daafe3b4186f6b6457e060405160405180910390a35050565b8173ffffffffffffffffffffffffffffffffffffffff168373ffffffffffffffffffffffffffffffffffffffff16141561187b576040517f08c379a000000000000000000000000000000000000000000000000000000000815260040161187290613171565b60405180910390fd5b80600560008573ffffffffffffffffffffffffffffffffffffffff1673ffffffffffffffffffffffffffffffffffffffff16815260200190815260200160002060008473ffffffffffffffffffffffffffffffffffffffff1673ffffffffffffffffffffffffffffffffffffffff16815260200190815260200160002060006101000a81548160ff0219169083151502179055508173ffffffffffffffffffffffffffffffffffffffff168373ffffffffffffffffffffffffffffffffffffffff167f17307eab39ab6107e8899845ad3d59bd9653f200f220920489ca2b5937696c318360405161196c9190612135565b60405180910390a3505050565b611984848484611437565b61199084848484611af8565b6119cf576040517f08c379a00000000000000000000000000000000000000000000000000000000081526004016119c690613203565b60405180910390fd5b50505050565b606060405180602001604052806000815250905090565b60606119f78261122c565b611a36576040517f08c379a0000000000000000000000000000000000000000000000000000000008152600401611a2d90613295565b60405180910390fd5b6000611a406119d5565b90506000815111611a605760405180602001604052806000815250611a8b565b80611a6a84611c80565b604051602001611a7b929190612df3565b6040516020818303038152906040525b915050919050565b505050565b505050565b611aa78383611de1565b611ab46000848484611af8565b611af3576040517f08c379a0000000000000000000000000000000000000000000000000000000008152600401611aea90613203565b60405180910390fd5b505050565b6000611b198473ffffffffffffffffffffffffffffffffffffffff16611fbb565b15611c73578373ffffffffffffffffffffffffffffffffffffffff1663150b7a02611b42611298565b8786866040518563ffffffff1660e01b8152600401611b64949392919061330a565b6020604051808303816000875af1925050508015611ba057506040513d601f19601f82011682018060405250810190611b9d919061336b565b60015b611c23573d8060008114611bd0576040519150601f19603f3d011682016040523d82523d6000602084013e611bd5565b606091505b50600081511415611c1b576040517f08c379a0000000000000000000000000000000000000000000000000000000008152600401611c1290613203565b60405180910390fd5b805181602001fd5b63150b7a0260e01b7bffffffffffffffffffffffffffffffffffffffffffffffffffffffff1916817bffffffffffffffffffffffffffffffffffffffffffffffffffffffff191614915050611c78565b600190505b949350505050565b60606000821415611cc8576040518060400160405280600181526020017f30000000000000000000000000000000000000000000000000000000000000008152509050611ddc565b600082905060005b60008214611cfa578080611ce390612bf4565b915050600a82611cf391906133c7565b9150611cd0565b60008167ffffffffffffffff811115611d1657611d15612456565b5b6040519080825280601f01601f191660200182016040528015611d485781602001600182028036833780820191505090505b5090505b60008514611dd557600182611d61919061305f565b9150600a85611d7091906133f8565b6030611d7c9190612c3d565b60f81b818381518110611d9257611d91613429565b5b60200101907effffffffffffffffffffffffffffffffffffffffffffffffffffffffffffff1916908160001a905350600a85611dce91906133c7565b9450611d4c565b8093505050505b919050565b600073ffffffffffffffffffffffffffffffffffffffff168273ffffffffffffffffffffffffffffffffffffffff161415611e51576040517f08c379a0000000000000000000000000000000000000000000000000000000008152600401611e48906134a4565b60405180910390fd5b611e5a8161122c565b15611e9a576040517f08c379a0000000000000000000000000000000000000000000000000000000008152600401611e9190613510565b60405180910390fd5b611ea660008383611a93565b6001600360008473ffffffffffffffffffffffffffffffffffffffff1673ffffffffffffffffffffffffffffffffffffffff1681526020019081526020016000206000828254611ef69190612c3d565b92505081905550816002600083815260200190815260200160002060006101000a81548173ffffffffffffffffffffffffffffffffffffffff021916908373ffffffffffffffffffffffffffffffffffffffff160217905550808273ffffffffffffffffffffffffffffffffffffffff16600073ffffffffffffffffffffffffffffffffffffffff167fddf252ad1be2c89b69c2b068fc378daa952ba7f163c4a11628f55a4df523b3ef60405160405180910390a4611fb760008383611a98565b5050565b6000808273ffffffffffffffffffffffffffffffffffffffff163b119050919050565b828054611fea90612673565b90600052602060002090601f01602090048101928261200c5760008555612053565b82601f1061202557805160ff1916838001178555612053565b82800160010185558215612053579182015b82811115612052578251825591602001919060010190612037565b5b5090506120609190612064565b5090565b5b8082111561207d576000816000905550600101612065565b5090565b6000604051905090565b600080fd5b600080fd5b60007fffffffff0000000000000000000000000000000000000000000000000000000082169050919050565b6120ca81612095565b81146120d557600080fd5b50565b6000813590506120e7816120c1565b92915050565b6000602082840312156121035761210261208b565b5b6000612111848285016120d8565b91505092915050565b60008115159050919050565b61212f8161211a565b82525050565b600060208201905061214a6000830184612126565b92915050565b600081519050919050565b600082825260208201905092915050565b60005b8381101561218a57808201518184015260208101905061216f565b83811115612199576000848401525b50505050565b6000601f19601f8301169050919050565b60006121bb82612150565b6121c5818561215b565b93506121d581856020860161216c565b6121de8161219f565b840191505092915050565b6000602082019050818103600083015261220381846121b0565b905092915050565b6000819050919050565b61221e8161220b565b811461222957600080fd5b50565b60008135905061223b81612215565b92915050565b6000602082840312156122575761225661208b565b5b60006122658482850161222c565b91505092915050565b600073ffffffffffffffffffffffffffffffffffffffff82169050919050565b60006122998261226e565b9050919050565b6122a98161228e565b82525050565b60006020820190506122c460008301846122a0565b92915050565b6122d38161228e565b81146122de57600080fd5b50565b6000813590506122f0816122ca565b92915050565b6000806040838503121561230d5761230c61208b565b5b600061231b858286016122e1565b925050602061232c8582860161222c565b9150509250929050565b60008060006060848603121561234f5761234e61208b565b5b600061235d868287016122e1565b935050602061236e868287016122e1565b925050604061237f8682870161222c565b9150509250925092565b60006020828403121561239f5761239e61208b565b5b60006123ad848285016122e1565b91505092915050565b6123bf8161220b565b82525050565b60006020820190506123da60008301846123b6565b92915050565b6123e98161211a565b81146123f457600080fd5b50565b600081359050612406816123e0565b92915050565b600080604083850312156124235761242261208b565b5b6000612431858286016122e1565b9250506020612442858286016123f7565b9150509250929050565b600080fd5b600080fd5b7f4e487b7100000000000000000000000000000000000000000000000000000000600052604160045260246000fd5b61248e8261219f565b810181811067ffffffffffffffff821117156124ad576124ac612456565b5b80604052505050565b60006124c0612081565b90506124cc8282612485565b919050565b600067ffffffffffffffff8211156124ec576124eb612456565b5b6124f58261219f565b9050602081019050919050565b82818337600083830152505050565b600061252461251f846124d1565b6124b6565b9050828152602081018484840111156125405761253f612451565b5b61254b848285612502565b509392505050565b600082601f8301126125685761256761244c565b5b8135612578848260208601612511565b91505092915050565b6000806000806080858703121561259b5761259a61208b565b5b60006125a9878288016122e1565b94505060206125ba878288016122e1565b93505060406125cb8782880161222c565b925050606085013567ffffffffffffffff8111156125ec576125eb612090565b5b6125f887828801612553565b91505092959194509250565b6000806040838503121561261b5761261a61208b565b5b6000612629858286016122e1565b925050602061263a858286016122e1565b9150509250929050565b7f4e487b7100000000000000000000000000000000000000000000000000000000600052602260045260246000fd5b6000600282049050600182168061268b57607f821691505b6020821081141561269f5761269e612644565b5b50919050565b7f4552433732313a20617070726f76656420717565727920666f72206e6f6e657860008201527f697374656e7420746f6b656e0000000000000000000000000000000000000000602082015250565b6000612701602c8361215b565b915061270c826126a5565b604082019050919050565b60006020820190508181036000830152612730816126f4565b9050919050565b7f4552433732313a20617070726f76616c20746f2063757272656e74206f776e6560008201527f7200000000000000000000000000000000000000000000000000000000000000602082015250565b600061279360218361215b565b915061279e82612737565b604082019050919050565b600060208201905081810360008301526127c281612786565b9050919050565b7f4552433732313a20617070726f76652063616c6c6572206973206e6f74206f7760008201527f6e6572206e6f7220617070726f76656420666f7220616c6c0000000000000000602082015250565b600061282560388361215b565b9150612830826127c9565b604082019050919050565b6000602082019050818103600083015261285481612818565b9050919050565b7f4552433732313a207472616e736665722063616c6c6572206973206e6f74206f60008201527f776e6572206e6f7220617070726f766564000000000000000000000000000000602082015250565b60006128b760318361215b565b91506128c28261285b565b604082019050919050565b600060208201905081810360008301526128e6816128aa565b9050919050565b7f4f776e61626c653a2063616c6c6572206973206e6f7420746865206f776e6572600082015250565b600061292360208361215b565b915061292e826128ed565b602082019050919050565b6000602082019050818103600083015261295281612916565b9050919050565b6000819050919050565b600061297e6129796129748461226e565b612959565b61226e565b9050919050565b600061299082612963565b9050919050565b60006129a282612985565b9050919050565b6129b281612997565b82525050565b60006060820190506129cd60008301866122a0565b6129da60208301856129a9565b6129e760408301846123b6565b949350505050565b7f4552433732313a206f776e657220717565727920666f72206e6f6e657869737460008201527f656e7420746f6b656e0000000000000000000000000000000000000000000000602082015250565b6000612a4b60298361215b565b9150612a56826129ef565b604082019050919050565b60006020820190508181036000830152612a7a81612a3e565b9050919050565b7f416c6c207469636b65747320536f6c6400000000000000000000000000000000600082015250565b6000612ab760108361215b565b9150612ac282612a81565b602082019050919050565b60006020820190508181036000830152612ae681612aaa565b9050919050565b7f5265656e7472616e637947756172643a207265656e7472616e742063616c6c00600082015250565b6000612b23601f8361215b565b9150612b2e82612aed565b602082019050919050565b60006020820190508181036000830152612b5281612b16565b9050919050565b7f6e6f7420656e6f756768206d6f6e657900000000000000000000000000000000600082015250565b6000612b8f60108361215b565b9150612b9a82612b59565b602082019050919050565b60006020820190508181036000830152612bbe81612b82565b9050919050565b7f4e487b7100000000000000000000000000000000000000000000000000000000600052601160045260246000fd5b6000612bff8261220b565b91507fffffffffffffffffffffffffffffffffffffffffffffffffffffffffffffffff821415612c3257612c31612bc5565b5b600182019050919050565b6000612c488261220b565b9150612c538361220b565b9250827fffffffffffffffffffffffffffffffffffffffffffffffffffffffffffffffff03821115612c8857612c87612bc5565b5b828201905092915050565b7f4552433732313a2062616c616e636520717565727920666f7220746865207a6560008201527f726f206164647265737300000000000000000000000000000000000000000000602082015250565b6000612cef602a8361215b565b9150612cfa82612c93565b604082019050919050565b60006020820190508181036000830152612d1e81612ce2565b9050919050565b7f45524337323155524953746f726167653a2055524920717565727920666f722060008201527f6e6f6e6578697374656e7420746f6b656e000000000000000000000000000000602082015250565b6000612d8160318361215b565b9150612d8c82612d25565b604082019050919050565b60006020820190508181036000830152612db081612d74565b9050919050565b600081905092915050565b6000612dcd82612150565b612dd78185612db7565b9350612de781856020860161216c565b80840191505092915050565b6000612dff8285612dc2565b9150612e0b8284612dc2565b91508190509392505050565b7f4f776e61626c653a206e6577206f776e657220697320746865207a65726f206160008201527f6464726573730000000000000000000000000000000000000000000000000000602082015250565b6000612e7360268361215b565b9150612e7e82612e17565b604082019050919050565b60006020820190508181036000830152612ea281612e66565b9050919050565b7f4552433732313a206f70657261746f7220717565727920666f72206e6f6e657860008201527f697374656e7420746f6b656e0000000000000000000000000000000000000000602082015250565b6000612f05602c8361215b565b9150612f1082612ea9565b604082019050919050565b60006020820190508181036000830152612f3481612ef8565b9050919050565b7f4552433732313a207472616e736665722066726f6d20696e636f72726563742060008201527f6f776e6572000000000000000000000000000000000000000000000000000000602082015250565b6000612f9760258361215b565b9150612fa282612f3b565b604082019050919050565b60006020820190508181036000830152612fc681612f8a565b9050919050565b7f4552433732313a207472616e7366657220746f20746865207a65726f2061646460008201527f7265737300000000000000000000000000000000000000000000000000000000602082015250565b600061302960248361215b565b915061303482612fcd565b604082019050919050565b600060208201905081810360008301526130588161301c565b9050919050565b600061306a8261220b565b91506130758361220b565b92508282101561308857613087612bc5565b5b828203905092915050565b7f45524337323155524953746f726167653a2055524920736574206f66206e6f6e60008201527f6578697374656e7420746f6b656e000000000000000000000000000000000000602082015250565b60006130ef602e8361215b565b91506130fa82613093565b604082019050919050565b6000602082019050818103600083015261311e816130e2565b9050919050565b7f4552433732313a20617070726f766520746f2063616c6c657200000000000000600082015250565b600061315b60198361215b565b915061316682613125565b602082019050919050565b6000602082019050818103600083015261318a8161314e565b9050919050565b7f4552433732313a207472616e7366657220746f206e6f6e20455243373231526560008201527f63656976657220696d706c656d656e7465720000000000000000000000000000602082015250565b60006131ed60328361215b565b91506131f882613191565b604082019050919050565b6000602082019050818103600083015261321c816131e0565b9050919050565b7f4552433732314d657461646174613a2055524920717565727920666f72206e6f60008201527f6e6578697374656e7420746f6b656e0000000000000000000000000000000000602082015250565b600061327f602f8361215b565b915061328a82613223565b604082019050919050565b600060208201905081810360008301526132ae81613272565b9050919050565b600081519050919050565b600082825260208201905092915050565b60006132dc826132b5565b6132e681856132c0565b93506132f681856020860161216c565b6132ff8161219f565b840191505092915050565b600060808201905061331f60008301876122a0565b61332c60208301866122a0565b61333960408301856123b6565b818103606083015261334b81846132d1565b905095945050505050565b600081519050613365816120c1565b92915050565b6000602082840312156133815761338061208b565b5b600061338f84828501613356565b91505092915050565b7f4e487b7100000000000000000000000000000000000000000000000000000000600052601260045260246000fd5b60006133d28261220b565b91506133dd8361220b565b9250826133ed576133ec613398565b5b828204905092915050565b60006134038261220b565b915061340e8361220b565b92508261341e5761341d613398565b5b828206905092915050565b7f4e487b7100000000000000000000000000000000000000000000000000000000600052603260045260246000fd5b7f4552433732313a206d696e7420746f20746865207a65726f2061646472657373600082015250565b600061348e60208361215b565b915061349982613458565b602082019050919050565b600060208201905081810360008301526134bd81613481565b9050919050565b7f4552433732313a20746f6b656e20616c7265616479206d696e74656400000000600082015250565b60006134fa601c8361215b565b9150613505826134c4565b602082019050919050565b60006020820190508181036000830152613529816134ed565b905091905056fea2646970667358221220c2c0dcf21afe7524c0e06f98136f6ffd0f77bac5dd58d2bf75c751005f97cac164736f6c634300080a0033",
  "immutableReferences": {},
  "source": "// SPDX-License-Identifier: MIT\r\npragma solidity ^0.8.0;\r\nimport \"@openzeppelin/contracts/token/ERC721/extensions/ERC721URIStorage.sol\";\r\nimport \"@openzeppelin/contracts/security/ReentrancyGuard.sol\";\r\nimport \"@openzeppelin/contracts/access/Ownable.sol\";\r\nimport \"@openzeppelin/contracts/utils/math/SafeMath.sol\";\r\n\r\n\r\ncontract EventTicketNFT is ERC721URIStorage, ReentrancyGuard, Ownable {\r\n    using SafeMath for uint;\r\n    string eventName;\r\n    string descriptionURI;\r\n    string eventURI;\r\n    uint64 ticketSupply;\r\n    uint256 ticketPrice;\r\n    bool saleEnd;\r\n    address payable withdrawalAddress;\r\n    uint ticketCount;\r\n\r\n    constructor(\r\n        string memory _eventName, \r\n        string memory _symbol,\r\n        string memory _descriptionURI,\r\n        string memory _eventURI,\r\n        uint64 _ticketSupply, \r\n        uint256 _ticketPrice\r\n    ) ERC721(_eventName, _symbol)\r\n    {\r\n        eventName = _eventName;\r\n        descriptionURI = _descriptionURI;\r\n        eventURI = _eventURI;\r\n        ticketSupply = _ticketSupply;\r\n        ticketPrice = _ticketPrice;\r\n        saleEnd = false;\r\n        withdrawalAddress = payable(msg.sender);\r\n    }\r\n    \r\n    event BalanceWithdrawn(address _by, address _to, uint256 _amount);\r\n    \r\n    modifier isOpen() {\r\n        require (!saleEnd, \"All tickets Sold\");\r\n        _;\r\n    } \r\n\r\n    function buyEventTicket() \r\n    external \r\n    payable \r\n    isOpen\r\n    nonReentrant \r\n    {   \r\n        require((msg.value >= ticketPrice),\"not enough money\");\r\n        \r\n        if(msg.value > ticketPrice)\r\n        {\r\n            address payable senderAddress = payable(msg.sender);\r\n            senderAddress.transfer(msg.value.sub(ticketPrice));\r\n        }\r\n        ticketCount ++;\r\n        uint tempCount = ticketCount + 1;\r\n        if (tempCount > ticketSupply)\r\n        {\r\n             saleEnd = true;\r\n        }\r\n        _safeMint(msg.sender, ticketCount);\r\n        _setTokenURI(ticketCount, eventURI);\r\n        \r\n    }\r\n\r\n    function getStatus() \r\n    public \r\n    view \r\n    returns (bool) \r\n    {\r\n        return saleEnd;\r\n    }\r\n   \r\n    function withdrawBalance() \r\n    public \r\n    onlyOwner \r\n    {\r\n        uint256 _contractBalance = uint256(address(this).balance);\r\n        withdrawalAddress.transfer(_contractBalance);\r\n        emit BalanceWithdrawn(msg.sender,withdrawalAddress,_contractBalance);\r\n    }\r\n\r\n}",
  "sourcePath": "D:\\banu\\FTProject\\Code\\NFT_Event_Assignment\\SC\\contracts\\EventTicketNFT.sol",
  "compiler": {
    "name": "solc",
    "version": "0.8.10+commit.fc410830.Emscripten.clang"
  },
  "schemaVersion": "3.4.4",
  "updatedAt": "2022-07-14T04:50:35.438Z",
  "devdoc": {
    "kind": "dev",
    "methods": {
      "approve(address,uint256)": {
        "details": "See {IERC721-approve}."
      },
      "balanceOf(address)": {
        "details": "See {IERC721-balanceOf}."
      },
      "getApproved(uint256)": {
        "details": "See {IERC721-getApproved}."
      },
      "isApprovedForAll(address,address)": {
        "details": "See {IERC721-isApprovedForAll}."
      },
      "name()": {
        "details": "See {IERC721Metadata-name}."
      },
      "owner()": {
        "details": "Returns the address of the current owner."
      },
      "ownerOf(uint256)": {
        "details": "See {IERC721-ownerOf}."
      },
      "renounceOwnership()": {
        "details": "Leaves the contract without owner. It will not be possible to call `onlyOwner` functions anymore. Can only be called by the current owner. NOTE: Renouncing ownership will leave the contract without an owner, thereby removing any functionality that is only available to the owner."
      },
      "safeTransferFrom(address,address,uint256)": {
        "details": "See {IERC721-safeTransferFrom}."
      },
      "safeTransferFrom(address,address,uint256,bytes)": {
        "details": "See {IERC721-safeTransferFrom}."
      },
      "setApprovalForAll(address,bool)": {
        "details": "See {IERC721-setApprovalForAll}."
      },
      "supportsInterface(bytes4)": {
        "details": "See {IERC165-supportsInterface}."
      },
      "symbol()": {
        "details": "See {IERC721Metadata-symbol}."
      },
      "tokenURI(uint256)": {
        "details": "See {IERC721Metadata-tokenURI}."
      },
      "transferFrom(address,address,uint256)": {
        "details": "See {IERC721-transferFrom}."
      },
      "transferOwnership(address)": {
        "details": "Transfers ownership of the contract to a new account (`newOwner`). Can only be called by the current owner."
      }
    },
    "version": 1
  },
  "userdoc": {
    "kind": "user",
    "methods": {},
    "version": 1
  }
}