{
  "contractName": "EventTicketNFT",
  "abi": [
    {
      "inputs": [
        {
          "internalType": "string",
          "name": "_eventName",
          "type": "string"
        },
        {
          "internalType": "string",
          "name": "_eventSymbol",
          "type": "string"
        },
        {
          "internalType": "string",
          "name": "_description",
          "type": "string"
        },
        {
          "internalType": "string",
          "name": "_eventURI",
          "type": "string"
        },
        {
          "internalType": "uint64",
          "name": "_ticketSupply",
          "type": "uint64"
        },
        {
          "internalType": "uint256",
          "name": "_ticketPrice",
          "type": "uint256"
        }
      ],
      "stateMutability": "nonpayable",
      "type": "constructor"
    },
    {
      "anonymous": false,
      "inputs": [
        {
          "indexed": true,
          "internalType": "address",
          "name": "owner",
          "type": "address"
        },
        {
          "indexed": true,
          "internalType": "address",
          "name": "approved",
          "type": "address"
        },
        {
          "indexed": true,
          "internalType": "uint256",
          "name": "tokenId",
          "type": "uint256"
        }
      ],
      "name": "Approval",
      "type": "event"
    },
    {
      "anonymous": false,
      "inputs": [
        {
          "indexed": true,
          "internalType": "address",
          "name": "owner",
          "type": "address"
        },
        {
          "indexed": true,
          "internalType": "address",
          "name": "operator",
          "type": "address"
        },
        {
          "indexed": false,
          "internalType": "bool",
          "name": "approved",
          "type": "bool"
        }
      ],
      "name": "ApprovalForAll",
      "type": "event"
    },
    {
      "anonymous": false,
      "inputs": [
        {
          "indexed": false,
          "internalType": "address",
          "name": "_by",
          "type": "address"
        },
        {
          "indexed": false,
          "internalType": "address",
          "name": "_to",
          "type": "address"
        },
        {
          "indexed": false,
          "internalType": "uint256",
          "name": "_amount",
          "type": "uint256"
        }
      ],
      "name": "BalanceWithdrawn",
      "type": "event"
    },
    {
      "anonymous": false,
      "inputs": [
        {
          "indexed": true,
          "internalType": "address",
          "name": "previousOwner",
          "type": "address"
        },
        {
          "indexed": true,
          "internalType": "address",
          "name": "newOwner",
          "type": "address"
        }
      ],
      "name": "OwnershipTransferred",
      "type": "event"
    },
    {
      "anonymous": false,
      "inputs": [
        {
          "indexed": true,
          "internalType": "address",
          "name": "from",
          "type": "address"
        },
        {
          "indexed": true,
          "internalType": "address",
          "name": "to",
          "type": "address"
        },
        {
          "indexed": true,
          "internalType": "uint256",
          "name": "tokenId",
          "type": "uint256"
        }
      ],
      "name": "Transfer",
      "type": "event"
    },
    {
      "anonymous": false,
      "inputs": [
        {
          "indexed": false,
          "internalType": "uint256",
          "name": "",
          "type": "uint256"
        }
      ],
      "name": "test",
      "type": "event"
    },
    {
      "inputs": [
        {
          "internalType": "address",
          "name": "to",
          "type": "address"
        },
        {
          "internalType": "uint256",
          "name": "tokenId",
          "type": "uint256"
        }
      ],
      "name": "approve",
      "outputs": [],
      "stateMutability": "nonpayable",
      "type": "function"
    },
    {
      "inputs": [
        {
          "internalType": "address",
          "name": "owner",
          "type": "address"
        }
      ],
      "name": "balanceOf",
      "outputs": [
        {
          "internalType": "uint256",
          "name": "",
          "type": "uint256"
        }
      ],
      "stateMutability": "view",
      "type": "function"
    },
    {
      "inputs": [],
      "name": "description",
      "outputs": [
        {
          "internalType": "string",
          "name": "",
          "type": "string"
        }
      ],
      "stateMutability": "view",
      "type": "function"
    },
    {
      "inputs": [],
      "name": "eventName",
      "outputs": [
        {
          "internalType": "string",
          "name": "",
          "type": "string"
        }
      ],
      "stateMutability": "view",
      "type": "function"
    },
    {
      "inputs": [],
      "name": "eventSymbol",
      "outputs": [
        {
          "internalType": "string",
          "name": "",
          "type": "string"
        }
      ],
      "stateMutability": "view",
      "type": "function"
    },
    {
      "inputs": [],
      "name": "eventURI",
      "outputs": [
        {
          "internalType": "string",
          "name": "",
          "type": "string"
        }
      ],
      "stateMutability": "view",
      "type": "function"
    },
    {
      "inputs": [
        {
          "internalType": "uint256",
          "name": "tokenId",
          "type": "uint256"
        }
      ],
      "name": "getApproved",
      "outputs": [
        {
          "internalType": "address",
          "name": "",
          "type": "address"
        }
      ],
      "stateMutability": "view",
      "type": "function"
    },
    {
      "inputs": [
        {
          "internalType": "address",
          "name": "owner",
          "type": "address"
        },
        {
          "internalType": "address",
          "name": "operator",
          "type": "address"
        }
      ],
      "name": "isApprovedForAll",
      "outputs": [
        {
          "internalType": "bool",
          "name": "",
          "type": "bool"
        }
      ],
      "stateMutability": "view",
      "type": "function"
    },
    {
      "inputs": [],
      "name": "name",
      "outputs": [
        {
          "internalType": "string",
          "name": "",
          "type": "string"
        }
      ],
      "stateMutability": "view",
      "type": "function"
    },
    {
      "inputs": [],
      "name": "owner",
      "outputs": [
        {
          "internalType": "address",
          "name": "",
          "type": "address"
        }
      ],
      "stateMutability": "view",
      "type": "function"
    },
    {
      "inputs": [
        {
          "internalType": "uint256",
          "name": "tokenId",
          "type": "uint256"
        }
      ],
      "name": "ownerOf",
      "outputs": [
        {
          "internalType": "address",
          "name": "",
          "type": "address"
        }
      ],
      "stateMutability": "view",
      "type": "function"
    },
    {
      "inputs": [],
      "name": "renounceOwnership",
      "outputs": [],
      "stateMutability": "nonpayable",
      "type": "function"
    },
    {
      "inputs": [
        {
          "internalType": "address",
          "name": "from",
          "type": "address"
        },
        {
          "internalType": "address",
          "name": "to",
          "type": "address"
        },
        {
          "internalType": "uint256",
          "name": "tokenId",
          "type": "uint256"
        }
      ],
      "name": "safeTransferFrom",
      "outputs": [],
      "stateMutability": "nonpayable",
      "type": "function"
    },
    {
      "inputs": [
        {
          "internalType": "address",
          "name": "from",
          "type": "address"
        },
        {
          "internalType": "address",
          "name": "to",
          "type": "address"
        },
        {
          "internalType": "uint256",
          "name": "tokenId",
          "type": "uint256"
        },
        {
          "internalType": "bytes",
          "name": "_data",
          "type": "bytes"
        }
      ],
      "name": "safeTransferFrom",
      "outputs": [],
      "stateMutability": "nonpayable",
      "type": "function"
    },
    {
      "inputs": [],
      "name": "saleEnd",
      "outputs": [
        {
          "internalType": "bool",
          "name": "",
          "type": "bool"
        }
      ],
      "stateMutability": "view",
      "type": "function"
    },
    {
      "inputs": [
        {
          "internalType": "address",
          "name": "operator",
          "type": "address"
        },
        {
          "internalType": "bool",
          "name": "approved",
          "type": "bool"
        }
      ],
      "name": "setApprovalForAll",
      "outputs": [],
      "stateMutability": "nonpayable",
      "type": "function"
    },
    {
      "inputs": [
        {
          "internalType": "bytes4",
          "name": "interfaceId",
          "type": "bytes4"
        }
      ],
      "name": "supportsInterface",
      "outputs": [
        {
          "internalType": "bool",
          "name": "",
          "type": "bool"
        }
      ],
      "stateMutability": "view",
      "type": "function"
    },
    {
      "inputs": [],
      "name": "symbol",
      "outputs": [
        {
          "internalType": "string",
          "name": "",
          "type": "string"
        }
      ],
      "stateMutability": "view",
      "type": "function"
    },
    {
      "inputs": [],
      "name": "ticketPrice",
      "outputs": [
        {
          "internalType": "uint256",
          "name": "",
          "type": "uint256"
        }
      ],
      "stateMutability": "view",
      "type": "function"
    },
    {
      "inputs": [],
      "name": "ticketSupply",
      "outputs": [
        {
          "internalType": "uint64",
          "name": "",
          "type": "uint64"
        }
      ],
      "stateMutability": "view",
      "type": "function"
    },
    {
      "inputs": [
        {
          "internalType": "uint256",
          "name": "tokenId",
          "type": "uint256"
        }
      ],
      "name": "tokenURI",
      "outputs": [
        {
          "internalType": "string",
          "name": "",
          "type": "string"
        }
      ],
      "stateMutability": "view",
      "type": "function"
    },
    {
      "inputs": [
        {
          "internalType": "address",
          "name": "from",
          "type": "address"
        },
        {
          "internalType": "address",
          "name": "to",
          "type": "address"
        },
        {
          "internalType": "uint256",
          "name": "tokenId",
          "type": "uint256"
        }
      ],
      "name": "transferFrom",
      "outputs": [],
      "stateMutability": "nonpayable",
      "type": "function"
    },
    {
      "inputs": [
        {
          "internalType": "address",
          "name": "newOwner",
          "type": "address"
        }
      ],
      "name": "transferOwnership",
      "outputs": [],
      "stateMutability": "nonpayable",
      "type": "function"
    },
    {
      "inputs": [],
      "name": "buyEventTicket",
      "outputs": [],
      "stateMutability": "payable",
      "type": "function"
    },
    {
      "inputs": [],
      "name": "getStatus",
      "outputs": [
        {
          "internalType": "bool",
          "name": "",
          "type": "bool"
        }
      ],
      "stateMutability": "view",
      "type": "function"
    },
    {
      "inputs": [],
      "name": "withdrawBalance",
      "outputs": [],
      "stateMutability": "nonpayable",
      "type": "function"
    }
  ],
  "bytecode": "0x60806040523480156200001157600080fd5b50604051620044b9380380620044b9833981810160405281019062000037919062000452565b858581600090816200004a9190620007ab565b5080600190816200005c9190620007ab565b5050506001600781905550620000876200007b6200016760201b60201c565b6200016f60201b60201c565b8560099081620000989190620007ab565b5084600a9081620000aa9190620007ab565b5083600b9081620000bc9190620007ab565b5082600c9081620000ce9190620007ab565b5081600d60006101000a81548167ffffffffffffffff021916908367ffffffffffffffff16021790555080600e819055506000600f60006101000a81548160ff02191690831515021790555033600f60016101000a81548173ffffffffffffffffffffffffffffffffffffffff021916908373ffffffffffffffffffffffffffffffffffffffff16021790555050505050505062000892565b600033905090565b6000600860009054906101000a900473ffffffffffffffffffffffffffffffffffffffff16905081600860006101000a81548173ffffffffffffffffffffffffffffffffffffffff021916908373ffffffffffffffffffffffffffffffffffffffff1602179055508173ffffffffffffffffffffffffffffffffffffffff168173ffffffffffffffffffffffffffffffffffffffff167f8be0079c531659141344cd1fd0a4f28419497f9722a3daafe3b4186f6b6457e060405160405180910390a35050565b6000604051905090565b600080fd5b600080fd5b600080fd5b600080fd5b6000601f19601f8301169050919050565b7f4e487b7100000000000000000000000000000000000000000000000000000000600052604160045260246000fd5b6200029e8262000253565b810181811067ffffffffffffffff82111715620002c057620002bf62000264565b5b80604052505050565b6000620002d562000235565b9050620002e3828262000293565b919050565b600067ffffffffffffffff82111562000306576200030562000264565b5b620003118262000253565b9050602081019050919050565b60005b838110156200033e57808201518184015260208101905062000321565b838111156200034e576000848401525b50505050565b60006200036b6200036584620002e8565b620002c9565b9050828152602081018484840111156200038a57620003896200024e565b5b620003978482856200031e565b509392505050565b600082601f830112620003b757620003b662000249565b5b8151620003c984826020860162000354565b91505092915050565b600067ffffffffffffffff82169050919050565b620003f181620003d2565b8114620003fd57600080fd5b50565b6000815190506200041181620003e6565b92915050565b6000819050919050565b6200042c8162000417565b81146200043857600080fd5b50565b6000815190506200044c8162000421565b92915050565b60008060008060008060c087890312156200047257620004716200023f565b5b600087015167ffffffffffffffff81111562000493576200049262000244565b5b620004a189828a016200039f565b965050602087015167ffffffffffffffff811115620004c557620004c462000244565b5b620004d389828a016200039f565b955050604087015167ffffffffffffffff811115620004f757620004f662000244565b5b6200050589828a016200039f565b945050606087015167ffffffffffffffff81111562000529576200052862000244565b5b6200053789828a016200039f565b93505060806200054a89828a0162000400565b92505060a06200055d89828a016200043b565b9150509295509295509295565b600081519050919050565b7f4e487b7100000000000000000000000000000000000000000000000000000000600052602260045260246000fd5b60006002820490506001821680620005bd57607f821691505b602082108103620005d357620005d262000575565b5b50919050565b60008190508160005260206000209050919050565b60006020601f8301049050919050565b600082821b905092915050565b6000600883026200063d7fffffffffffffffffffffffffffffffffffffffffffffffffffffffffffffffff82620005fe565b620006498683620005fe565b95508019841693508086168417925050509392505050565b6000819050919050565b60006200068c62000686620006808462000417565b62000661565b62000417565b9050919050565b6000819050919050565b620006a8836200066b565b620006c0620006b78262000693565b8484546200060b565b825550505050565b600090565b620006d7620006c8565b620006e48184846200069d565b505050565b5b818110156200070c5762000700600082620006cd565b600181019050620006ea565b5050565b601f8211156200075b576200072581620005d9565b6200073084620005ee565b8101602085101562000740578190505b620007586200074f85620005ee565b830182620006e9565b50505b505050565b600082821c905092915050565b6000620007806000198460080262000760565b1980831691505092915050565b60006200079b83836200076d565b9150826002028217905092915050565b620007b6826200056a565b67ffffffffffffffff811115620007d257620007d162000264565b5b620007de8254620005a4565b620007eb82828562000710565b600060209050601f8311600181146200082357600084156200080e578287015190505b6200081a85826200078d565b8655506200088a565b601f1984166200083386620005d9565b60005b828110156200085d5784890151825560018201915060208501945060208101905062000836565b868310156200087d578489015162000879601f8916826200076d565b8355505b6001600288020188555050505b505050505050565b613c1780620008a26000396000f3fe6080604052600436106101815760003560e01c8063715018a6116100d1578063b5e806951161008a578063c87b56dd11610064578063c87b56dd1461052d578063e985e9c51461056a578063f2fde38b146105a7578063fc9f7d00146105d057610181565b8063b5e80695146104ae578063b88d4fde146104d9578063c10b93581461050257610181565b8063715018a6146103c25780637284e416146103d95780638043c9c0146104045780638da5cb5b1461042f57806395d89b411461045a578063a22cb4651461048557610181565b806342842e0e1161013e5780635fd8c710116101185780635fd8c710146103275780636352211e1461033e5780636bc6e98a1461037b57806370a082311461038557610181565b806342842e0e146102a85780634e69d560146102d15780635d83c2b8146102fc57610181565b806301ffc9a71461018657806306fdde03146101c3578063081812fc146101ee578063095ea7b31461022b5780631209b1f61461025457806323b872dd1461027f575b600080fd5b34801561019257600080fd5b506101ad60048036038101906101a891906124ee565b6105fb565b6040516101ba9190612536565b60405180910390f35b3480156101cf57600080fd5b506101d86106dd565b6040516101e591906125ea565b60405180910390f35b3480156101fa57600080fd5b5061021560048036038101906102109190612642565b61076f565b60405161022291906126b0565b60405180910390f35b34801561023757600080fd5b50610252600480360381019061024d91906126f7565b6107f4565b005b34801561026057600080fd5b5061026961090b565b6040516102769190612746565b60405180910390f35b34801561028b57600080fd5b506102a660048036038101906102a19190612761565b610911565b005b3480156102b457600080fd5b506102cf60048036038101906102ca9190612761565b610971565b005b3480156102dd57600080fd5b506102e6610991565b6040516102f39190612536565b60405180910390f35b34801561030857600080fd5b506103116109a8565b60405161031e91906127d7565b60405180910390f35b34801561033357600080fd5b5061033c6109c2565b005b34801561034a57600080fd5b5061036560048036038101906103609190612642565b610b0c565b60405161037291906126b0565b60405180910390f35b610383610bbd565b005b34801561039157600080fd5b506103ac60048036038101906103a791906127f2565b610ed8565b6040516103b99190612746565b60405180910390f35b3480156103ce57600080fd5b506103d7610f8f565b005b3480156103e557600080fd5b506103ee611017565b6040516103fb91906125ea565b60405180910390f35b34801561041057600080fd5b506104196110a5565b60405161042691906125ea565b60405180910390f35b34801561043b57600080fd5b50610444611133565b60405161045191906126b0565b60405180910390f35b34801561046657600080fd5b5061046f61115d565b60405161047c91906125ea565b60405180910390f35b34801561049157600080fd5b506104ac60048036038101906104a7919061284b565b6111ef565b005b3480156104ba57600080fd5b506104c3611205565b6040516104d091906125ea565b60405180910390f35b3480156104e557600080fd5b5061050060048036038101906104fb91906129c0565b611293565b005b34801561050e57600080fd5b506105176112f5565b6040516105249190612536565b60405180910390f35b34801561053957600080fd5b50610554600480360381019061054f9190612642565b611308565b60405161056191906125ea565b60405180910390f35b34801561057657600080fd5b50610591600480360381019061058c9190612a43565b611459565b60405161059e9190612536565b60405180910390f35b3480156105b357600080fd5b506105ce60048036038101906105c991906127f2565b6114ed565b005b3480156105dc57600080fd5b506105e56115e4565b6040516105f291906125ea565b60405180910390f35b60007f80ac58cd000000000000000000000000000000000000000000000000000000007bffffffffffffffffffffffffffffffffffffffffffffffffffffffff1916827bffffffffffffffffffffffffffffffffffffffffffffffffffffffff191614806106c657507f5b5e139f000000000000000000000000000000000000000000000000000000007bffffffffffffffffffffffffffffffffffffffffffffffffffffffff1916827bffffffffffffffffffffffffffffffffffffffffffffffffffffffff1916145b806106d657506106d582611672565b5b9050919050565b6060600080546106ec90612ab2565b80601f016020809104026020016040519081016040528092919081815260200182805461071890612ab2565b80156107655780601f1061073a57610100808354040283529160200191610765565b820191906000526020600020905b81548152906001019060200180831161074857829003601f168201915b5050505050905090565b600061077a826116dc565b6107b9576040517f08c379a00000000000000000000000000000000000000000000000000000000081526004016107b090612b55565b60405180910390fd5b6004600083815260200190815260200160002060009054906101000a900473ffffffffffffffffffffffffffffffffffffffff169050919050565b60006107ff82610b0c565b90508073ffffffffffffffffffffffffffffffffffffffff168373ffffffffffffffffffffffffffffffffffffffff160361086f576040517f08c379a000000000000000000000000000000000000000000000000000000000815260040161086690612be7565b60405180910390fd5b8073ffffffffffffffffffffffffffffffffffffffff1661088e611748565b73ffffffffffffffffffffffffffffffffffffffff1614806108bd57506108bc816108b7611748565b611459565b5b6108fc576040517f08c379a00000000000000000000000000000000000000000000000000000000081526004016108f390612c79565b60405180910390fd5b6109068383611750565b505050565b600e5481565b61092261091c611748565b82611809565b610961576040517f08c379a000000000000000000000000000000000000000000000000000000000815260040161095890612d0b565b60405180910390fd5b61096c8383836118e7565b505050565b61098c83838360405180602001604052806000815250611293565b505050565b6000600f60009054906101000a900460ff16905090565b600d60009054906101000a900467ffffffffffffffff1681565b6109ca611748565b73ffffffffffffffffffffffffffffffffffffffff166109e8611133565b73ffffffffffffffffffffffffffffffffffffffff1614610a3e576040517f08c379a0000000000000000000000000000000000000000000000000000000008152600401610a3590612d77565b60405180910390fd5b6000479050600f60019054906101000a900473ffffffffffffffffffffffffffffffffffffffff1673ffffffffffffffffffffffffffffffffffffffff166108fc829081150290604051600060405180830381858888f19350505050158015610aab573d6000803e3d6000fd5b507f50630162af2fe1b3638257703351230fbe331ec0b7368aba0eb78f2dabd03c0c33600f60019054906101000a900473ffffffffffffffffffffffffffffffffffffffff1683604051610b0193929190612df6565b60405180910390a150565b6000806002600084815260200190815260200160002060009054906101000a900473ffffffffffffffffffffffffffffffffffffffff169050600073ffffffffffffffffffffffffffffffffffffffff168173ffffffffffffffffffffffffffffffffffffffff1603610bb4576040517f08c379a0000000000000000000000000000000000000000000000000000000008152600401610bab90612e9f565b60405180910390fd5b80915050919050565b600f60009054906101000a900460ff1615610c0d576040517f08c379a0000000000000000000000000000000000000000000000000000000008152600401610c0490612f0b565b60405180910390fd5b600260075403610c52576040517f08c379a0000000000000000000000000000000000000000000000000000000008152600401610c4990612f77565b60405180910390fd5b6002600781905550600e54341015610c9f576040517f08c379a0000000000000000000000000000000000000000000000000000000008152600401610c9690612fe3565b60405180910390fd5b7f29e99f07d14aa8d30a12fa0b0789b43183ba1bf6b4a72b95459a3e397cca10d7600e54604051610cd09190612746565b60405180910390a1600e54341115610d835760003390506000610cfe600e5434611b4d90919063ffffffff16565b90507f29e99f07d14aa8d30a12fa0b0789b43183ba1bf6b4a72b95459a3e397cca10d7600e54604051610d319190612746565b60405180910390a18173ffffffffffffffffffffffffffffffffffffffff166108fc829081150290604051600060405180830381858888f19350505050158015610d7f573d6000803e3d6000fd5b5050505b60106000815480929190610d9690613032565b91905055507f29e99f07d14aa8d30a12fa0b0789b43183ba1bf6b4a72b95459a3e397cca10d7601054604051610dcc9190612746565b60405180910390a160006001601054610de5919061307a565b9050600d60009054906101000a900467ffffffffffffffff1667ffffffffffffffff16811115610e2b576001600f60006101000a81548160ff0219169083151502179055505b610e3733601054611b63565b610ecd601054600c8054610e4a90612ab2565b80601f0160208091040260200160405190810160405280929190818152602001828054610e7690612ab2565b8015610ec35780601f10610e9857610100808354040283529160200191610ec3565b820191906000526020600020905b815481529060010190602001808311610ea657829003601f168201915b5050505050611b81565b506001600781905550565b60008073ffffffffffffffffffffffffffffffffffffffff168273ffffffffffffffffffffffffffffffffffffffff1603610f48576040517f08c379a0000000000000000000000000000000000000000000000000000000008152600401610f3f90613142565b60405180910390fd5b600360008373ffffffffffffffffffffffffffffffffffffffff1673ffffffffffffffffffffffffffffffffffffffff168152602001908152602001600020549050919050565b610f97611748565b73ffffffffffffffffffffffffffffffffffffffff16610fb5611133565b73ffffffffffffffffffffffffffffffffffffffff161461100b576040517f08c379a000000000000000000000000000000000000000000000000000000000815260040161100290612d77565b60405180910390fd5b6110156000611bee565b565b600b805461102490612ab2565b80601f016020809104026020016040519081016040528092919081815260200182805461105090612ab2565b801561109d5780601f106110725761010080835404028352916020019161109d565b820191906000526020600020905b81548152906001019060200180831161108057829003601f168201915b505050505081565b600980546110b290612ab2565b80601f01602080910402602001604051908101604052809291908181526020018280546110de90612ab2565b801561112b5780601f106111005761010080835404028352916020019161112b565b820191906000526020600020905b81548152906001019060200180831161110e57829003601f168201915b505050505081565b6000600860009054906101000a900473ffffffffffffffffffffffffffffffffffffffff16905090565b60606001805461116c90612ab2565b80601f016020809104026020016040519081016040528092919081815260200182805461119890612ab2565b80156111e55780601f106111ba576101008083540402835291602001916111e5565b820191906000526020600020905b8154815290600101906020018083116111c857829003601f168201915b5050505050905090565b6112016111fa611748565b8383611cb4565b5050565b600c805461121290612ab2565b80601f016020809104026020016040519081016040528092919081815260200182805461123e90612ab2565b801561128b5780601f106112605761010080835404028352916020019161128b565b820191906000526020600020905b81548152906001019060200180831161126e57829003601f168201915b505050505081565b6112a461129e611748565b83611809565b6112e3576040517f08c379a00000000000000000000000000000000000000000000000000000000081526004016112da90612d0b565b60405180910390fd5b6112ef84848484611e20565b50505050565b600f60009054906101000a900460ff1681565b6060611313826116dc565b611352576040517f08c379a0000000000000000000000000000000000000000000000000000000008152600401611349906131d4565b60405180910390fd5b600060066000848152602001908152602001600020805461137290612ab2565b80601f016020809104026020016040519081016040528092919081815260200182805461139e90612ab2565b80156113eb5780601f106113c0576101008083540402835291602001916113eb565b820191906000526020600020905b8154815290600101906020018083116113ce57829003601f168201915b5050505050905060006113fc611e7c565b90506000815103611411578192505050611454565b60008251111561144657808260405160200161142e929190613230565b60405160208183030381529060405292505050611454565b61144f84611e93565b925050505b919050565b6000600560008473ffffffffffffffffffffffffffffffffffffffff1673ffffffffffffffffffffffffffffffffffffffff16815260200190815260200160002060008373ffffffffffffffffffffffffffffffffffffffff1673ffffffffffffffffffffffffffffffffffffffff16815260200190815260200160002060009054906101000a900460ff16905092915050565b6114f5611748565b73ffffffffffffffffffffffffffffffffffffffff16611513611133565b73ffffffffffffffffffffffffffffffffffffffff1614611569576040517f08c379a000000000000000000000000000000000000000000000000000000000815260040161156090612d77565b60405180910390fd5b600073ffffffffffffffffffffffffffffffffffffffff168173ffffffffffffffffffffffffffffffffffffffff16036115d8576040517f08c379a00000000000000000000000000000000000000000000000000000000081526004016115cf906132c6565b60405180910390fd5b6115e181611bee565b50565b600a80546115f190612ab2565b80601f016020809104026020016040519081016040528092919081815260200182805461161d90612ab2565b801561166a5780601f1061163f5761010080835404028352916020019161166a565b820191906000526020600020905b81548152906001019060200180831161164d57829003601f168201915b505050505081565b60007f01ffc9a7000000000000000000000000000000000000000000000000000000007bffffffffffffffffffffffffffffffffffffffffffffffffffffffff1916827bffffffffffffffffffffffffffffffffffffffffffffffffffffffff1916149050919050565b60008073ffffffffffffffffffffffffffffffffffffffff166002600084815260200190815260200160002060009054906101000a900473ffffffffffffffffffffffffffffffffffffffff1673ffffffffffffffffffffffffffffffffffffffff1614159050919050565b600033905090565b816004600083815260200190815260200160002060006101000a81548173ffffffffffffffffffffffffffffffffffffffff021916908373ffffffffffffffffffffffffffffffffffffffff160217905550808273ffffffffffffffffffffffffffffffffffffffff166117c383610b0c565b73ffffffffffffffffffffffffffffffffffffffff167f8c5be1e5ebec7d5bd14f71427d1e84f3dd0314c0f7b2291e5b200ac8c7c3b92560405160405180910390a45050565b6000611814826116dc565b611853576040517f08c379a000000000000000000000000000000000000000000000000000000000815260040161184a90613358565b60405180910390fd5b600061185e83610b0c565b90508073ffffffffffffffffffffffffffffffffffffffff168473ffffffffffffffffffffffffffffffffffffffff1614806118cd57508373ffffffffffffffffffffffffffffffffffffffff166118b58461076f565b73ffffffffffffffffffffffffffffffffffffffff16145b806118de57506118dd8185611459565b5b91505092915050565b8273ffffffffffffffffffffffffffffffffffffffff1661190782610b0c565b73ffffffffffffffffffffffffffffffffffffffff161461195d576040517f08c379a0000000000000000000000000000000000000000000000000000000008152600401611954906133ea565b60405180910390fd5b600073ffffffffffffffffffffffffffffffffffffffff168273ffffffffffffffffffffffffffffffffffffffff16036119cc576040517f08c379a00000000000000000000000000000000000000000000000000000000081526004016119c39061347c565b60405180910390fd5b6119d7838383611f3a565b6119e2600082611750565b6001600360008573ffffffffffffffffffffffffffffffffffffffff1673ffffffffffffffffffffffffffffffffffffffff1681526020019081526020016000206000828254611a32919061349c565b925050819055506001600360008473ffffffffffffffffffffffffffffffffffffffff1673ffffffffffffffffffffffffffffffffffffffff1681526020019081526020016000206000828254611a89919061307a565b92505081905550816002600083815260200190815260200160002060006101000a81548173ffffffffffffffffffffffffffffffffffffffff021916908373ffffffffffffffffffffffffffffffffffffffff160217905550808273ffffffffffffffffffffffffffffffffffffffff168473ffffffffffffffffffffffffffffffffffffffff167fddf252ad1be2c89b69c2b068fc378daa952ba7f163c4a11628f55a4df523b3ef60405160405180910390a4611b48838383611f3f565b505050565b60008183611b5b919061349c565b905092915050565b611b7d828260405180602001604052806000815250611f44565b5050565b611b8a826116dc565b611bc9576040517f08c379a0000000000000000000000000000000000000000000000000000000008152600401611bc090613542565b60405180910390fd5b80600660008481526020019081526020016000209081611be99190613704565b505050565b6000600860009054906101000a900473ffffffffffffffffffffffffffffffffffffffff16905081600860006101000a81548173ffffffffffffffffffffffffffffffffffffffff021916908373ffffffffffffffffffffffffffffffffffffffff1602179055508173ffffffffffffffffffffffffffffffffffffffff168173ffffffffffffffffffffffffffffffffffffffff167f8be0079c531659141344cd1fd0a4f28419497f9722a3daafe3b4186f6b6457e060405160405180910390a35050565b8173ffffffffffffffffffffffffffffffffffffffff168373ffffffffffffffffffffffffffffffffffffffff1603611d22576040517f08c379a0000000000000000000000000000000000000000000000000000000008152600401611d1990613822565b60405180910390fd5b80600560008573ffffffffffffffffffffffffffffffffffffffff1673ffffffffffffffffffffffffffffffffffffffff16815260200190815260200160002060008473ffffffffffffffffffffffffffffffffffffffff1673ffffffffffffffffffffffffffffffffffffffff16815260200190815260200160002060006101000a81548160ff0219169083151502179055508173ffffffffffffffffffffffffffffffffffffffff168373ffffffffffffffffffffffffffffffffffffffff167f17307eab39ab6107e8899845ad3d59bd9653f200f220920489ca2b5937696c3183604051611e139190612536565b60405180910390a3505050565b611e2b8484846118e7565b611e3784848484611f9f565b611e76576040517f08c379a0000000000000000000000000000000000000000000000000000000008152600401611e6d906138b4565b60405180910390fd5b50505050565b606060405180602001604052806000815250905090565b6060611e9e826116dc565b611edd576040517f08c379a0000000000000000000000000000000000000000000000000000000008152600401611ed490613946565b60405180910390fd5b6000611ee7611e7c565b90506000815111611f075760405180602001604052806000815250611f32565b80611f1184612126565b604051602001611f22929190613230565b6040516020818303038152906040525b915050919050565b505050565b505050565b611f4e8383612286565b611f5b6000848484611f9f565b611f9a576040517f08c379a0000000000000000000000000000000000000000000000000000000008152600401611f91906138b4565b60405180910390fd5b505050565b6000611fc08473ffffffffffffffffffffffffffffffffffffffff1661245f565b15612119578373ffffffffffffffffffffffffffffffffffffffff1663150b7a02611fe9611748565b8786866040518563ffffffff1660e01b815260040161200b94939291906139bb565b6020604051808303816000875af192505050801561204757506040513d601f19601f820116820180604052508101906120449190613a1c565b60015b6120c9573d8060008114612077576040519150601f19603f3d011682016040523d82523d6000602084013e61207c565b606091505b5060008151036120c1576040517f08c379a00000000000000000000000000000000000000000000000000000000081526004016120b8906138b4565b60405180910390fd5b805181602001fd5b63150b7a0260e01b7bffffffffffffffffffffffffffffffffffffffffffffffffffffffff1916817bffffffffffffffffffffffffffffffffffffffffffffffffffffffff19161491505061211e565b600190505b949350505050565b60606000820361216d576040518060400160405280600181526020017f30000000000000000000000000000000000000000000000000000000000000008152509050612281565b600082905060005b6000821461219f57808061218890613032565b915050600a826121989190613a78565b9150612175565b60008167ffffffffffffffff8111156121bb576121ba612895565b5b6040519080825280601f01601f1916602001820160405280156121ed5781602001600182028036833780820191505090505b5090505b6000851461227a57600182612206919061349c565b9150600a856122159190613aa9565b6030612221919061307a565b60f81b81838151811061223757612236613ada565b5b60200101907effffffffffffffffffffffffffffffffffffffffffffffffffffffffffffff1916908160001a905350600a856122739190613a78565b94506121f1565b8093505050505b919050565b600073ffffffffffffffffffffffffffffffffffffffff168273ffffffffffffffffffffffffffffffffffffffff16036122f5576040517f08c379a00000000000000000000000000000000000000000000000000000000081526004016122ec90613b55565b60405180910390fd5b6122fe816116dc565b1561233e576040517f08c379a000000000000000000000000000000000000000000000000000000000815260040161233590613bc1565b60405180910390fd5b61234a60008383611f3a565b6001600360008473ffffffffffffffffffffffffffffffffffffffff1673ffffffffffffffffffffffffffffffffffffffff168152602001908152602001600020600082825461239a919061307a565b92505081905550816002600083815260200190815260200160002060006101000a81548173ffffffffffffffffffffffffffffffffffffffff021916908373ffffffffffffffffffffffffffffffffffffffff160217905550808273ffffffffffffffffffffffffffffffffffffffff16600073ffffffffffffffffffffffffffffffffffffffff167fddf252ad1be2c89b69c2b068fc378daa952ba7f163c4a11628f55a4df523b3ef60405160405180910390a461245b60008383611f3f565b5050565b6000808273ffffffffffffffffffffffffffffffffffffffff163b119050919050565b6000604051905090565b600080fd5b600080fd5b60007fffffffff0000000000000000000000000000000000000000000000000000000082169050919050565b6124cb81612496565b81146124d657600080fd5b50565b6000813590506124e8816124c2565b92915050565b6000602082840312156125045761250361248c565b5b6000612512848285016124d9565b91505092915050565b60008115159050919050565b6125308161251b565b82525050565b600060208201905061254b6000830184612527565b92915050565b600081519050919050565b600082825260208201905092915050565b60005b8381101561258b578082015181840152602081019050612570565b8381111561259a576000848401525b50505050565b6000601f19601f8301169050919050565b60006125bc82612551565b6125c6818561255c565b93506125d681856020860161256d565b6125df816125a0565b840191505092915050565b6000602082019050818103600083015261260481846125b1565b905092915050565b6000819050919050565b61261f8161260c565b811461262a57600080fd5b50565b60008135905061263c81612616565b92915050565b6000602082840312156126585761265761248c565b5b60006126668482850161262d565b91505092915050565b600073ffffffffffffffffffffffffffffffffffffffff82169050919050565b600061269a8261266f565b9050919050565b6126aa8161268f565b82525050565b60006020820190506126c560008301846126a1565b92915050565b6126d48161268f565b81146126df57600080fd5b50565b6000813590506126f1816126cb565b92915050565b6000806040838503121561270e5761270d61248c565b5b600061271c858286016126e2565b925050602061272d8582860161262d565b9150509250929050565b6127408161260c565b82525050565b600060208201905061275b6000830184612737565b92915050565b60008060006060848603121561277a5761277961248c565b5b6000612788868287016126e2565b9350506020612799868287016126e2565b92505060406127aa8682870161262d565b9150509250925092565b600067ffffffffffffffff82169050919050565b6127d1816127b4565b82525050565b60006020820190506127ec60008301846127c8565b92915050565b6000602082840312156128085761280761248c565b5b6000612816848285016126e2565b91505092915050565b6128288161251b565b811461283357600080fd5b50565b6000813590506128458161281f565b92915050565b600080604083850312156128625761286161248c565b5b6000612870858286016126e2565b925050602061288185828601612836565b9150509250929050565b600080fd5b600080fd5b7f4e487b7100000000000000000000000000000000000000000000000000000000600052604160045260246000fd5b6128cd826125a0565b810181811067ffffffffffffffff821117156128ec576128eb612895565b5b80604052505050565b60006128ff612482565b905061290b82826128c4565b919050565b600067ffffffffffffffff82111561292b5761292a612895565b5b612934826125a0565b9050602081019050919050565b82818337600083830152505050565b600061296361295e84612910565b6128f5565b90508281526020810184848401111561297f5761297e612890565b5b61298a848285612941565b509392505050565b600082601f8301126129a7576129a661288b565b5b81356129b7848260208601612950565b91505092915050565b600080600080608085870312156129da576129d961248c565b5b60006129e8878288016126e2565b94505060206129f9878288016126e2565b9350506040612a0a8782880161262d565b925050606085013567ffffffffffffffff811115612a2b57612a2a612491565b5b612a3787828801612992565b91505092959194509250565b60008060408385031215612a5a57612a5961248c565b5b6000612a68858286016126e2565b9250506020612a79858286016126e2565b9150509250929050565b7f4e487b7100000000000000000000000000000000000000000000000000000000600052602260045260246000fd5b60006002820490506001821680612aca57607f821691505b602082108103612add57612adc612a83565b5b50919050565b7f4552433732313a20617070726f76656420717565727920666f72206e6f6e657860008201527f697374656e7420746f6b656e0000000000000000000000000000000000000000602082015250565b6000612b3f602c8361255c565b9150612b4a82612ae3565b604082019050919050565b60006020820190508181036000830152612b6e81612b32565b9050919050565b7f4552433732313a20617070726f76616c20746f2063757272656e74206f776e6560008201527f7200000000000000000000000000000000000000000000000000000000000000602082015250565b6000612bd160218361255c565b9150612bdc82612b75565b604082019050919050565b60006020820190508181036000830152612c0081612bc4565b9050919050565b7f4552433732313a20617070726f76652063616c6c6572206973206e6f74206f7760008201527f6e6572206e6f7220617070726f76656420666f7220616c6c0000000000000000602082015250565b6000612c6360388361255c565b9150612c6e82612c07565b604082019050919050565b60006020820190508181036000830152612c9281612c56565b9050919050565b7f4552433732313a207472616e736665722063616c6c6572206973206e6f74206f60008201527f776e6572206e6f7220617070726f766564000000000000000000000000000000602082015250565b6000612cf560318361255c565b9150612d0082612c99565b604082019050919050565b60006020820190508181036000830152612d2481612ce8565b9050919050565b7f4f776e61626c653a2063616c6c6572206973206e6f7420746865206f776e6572600082015250565b6000612d6160208361255c565b9150612d6c82612d2b565b602082019050919050565b60006020820190508181036000830152612d9081612d54565b9050919050565b6000819050919050565b6000612dbc612db7612db28461266f565b612d97565b61266f565b9050919050565b6000612dce82612da1565b9050919050565b6000612de082612dc3565b9050919050565b612df081612dd5565b82525050565b6000606082019050612e0b60008301866126a1565b612e186020830185612de7565b612e256040830184612737565b949350505050565b7f4552433732313a206f776e657220717565727920666f72206e6f6e657869737460008201527f656e7420746f6b656e0000000000000000000000000000000000000000000000602082015250565b6000612e8960298361255c565b9150612e9482612e2d565b604082019050919050565b60006020820190508181036000830152612eb881612e7c565b9050919050565b7f416c6c207469636b65747320536f6c6400000000000000000000000000000000600082015250565b6000612ef560108361255c565b9150612f0082612ebf565b602082019050919050565b60006020820190508181036000830152612f2481612ee8565b9050919050565b7f5265656e7472616e637947756172643a207265656e7472616e742063616c6c00600082015250565b6000612f61601f8361255c565b9150612f6c82612f2b565b602082019050919050565b60006020820190508181036000830152612f9081612f54565b9050919050565b7f6e6f7420656e6f756768206d6f6e657900000000000000000000000000000000600082015250565b6000612fcd60108361255c565b9150612fd882612f97565b602082019050919050565b60006020820190508181036000830152612ffc81612fc0565b9050919050565b7f4e487b7100000000000000000000000000000000000000000000000000000000600052601160045260246000fd5b600061303d8261260c565b91507fffffffffffffffffffffffffffffffffffffffffffffffffffffffffffffffff820361306f5761306e613003565b5b600182019050919050565b60006130858261260c565b91506130908361260c565b9250827fffffffffffffffffffffffffffffffffffffffffffffffffffffffffffffffff038211156130c5576130c4613003565b5b828201905092915050565b7f4552433732313a2062616c616e636520717565727920666f7220746865207a6560008201527f726f206164647265737300000000000000000000000000000000000000000000602082015250565b600061312c602a8361255c565b9150613137826130d0565b604082019050919050565b6000602082019050818103600083015261315b8161311f565b9050919050565b7f45524337323155524953746f726167653a2055524920717565727920666f722060008201527f6e6f6e6578697374656e7420746f6b656e000000000000000000000000000000602082015250565b60006131be60318361255c565b91506131c982613162565b604082019050919050565b600060208201905081810360008301526131ed816131b1565b9050919050565b600081905092915050565b600061320a82612551565b61321481856131f4565b935061322481856020860161256d565b80840191505092915050565b600061323c82856131ff565b915061324882846131ff565b91508190509392505050565b7f4f776e61626c653a206e6577206f776e657220697320746865207a65726f206160008201527f6464726573730000000000000000000000000000000000000000000000000000602082015250565b60006132b060268361255c565b91506132bb82613254565b604082019050919050565b600060208201905081810360008301526132df816132a3565b9050919050565b7f4552433732313a206f70657261746f7220717565727920666f72206e6f6e657860008201527f697374656e7420746f6b656e0000000000000000000000000000000000000000602082015250565b6000613342602c8361255c565b915061334d826132e6565b604082019050919050565b6000602082019050818103600083015261337181613335565b9050919050565b7f4552433732313a207472616e736665722066726f6d20696e636f72726563742060008201527f6f776e6572000000000000000000000000000000000000000000000000000000602082015250565b60006133d460258361255c565b91506133df82613378565b604082019050919050565b60006020820190508181036000830152613403816133c7565b9050919050565b7f4552433732313a207472616e7366657220746f20746865207a65726f2061646460008201527f7265737300000000000000000000000000000000000000000000000000000000602082015250565b600061346660248361255c565b91506134718261340a565b604082019050919050565b6000602082019050818103600083015261349581613459565b9050919050565b60006134a78261260c565b91506134b28361260c565b9250828210156134c5576134c4613003565b5b828203905092915050565b7f45524337323155524953746f726167653a2055524920736574206f66206e6f6e60008201527f6578697374656e7420746f6b656e000000000000000000000000000000000000602082015250565b600061352c602e8361255c565b9150613537826134d0565b604082019050919050565b6000602082019050818103600083015261355b8161351f565b9050919050565b60008190508160005260206000209050919050565b60006020601f8301049050919050565b600082821b905092915050565b6000600883026135c47fffffffffffffffffffffffffffffffffffffffffffffffffffffffffffffffff82613587565b6135ce8683613587565b95508019841693508086168417925050509392505050565b60006136016135fc6135f78461260c565b612d97565b61260c565b9050919050565b6000819050919050565b61361b836135e6565b61362f61362782613608565b848454613594565b825550505050565b600090565b613644613637565b61364f818484613612565b505050565b5b818110156136735761366860008261363c565b600181019050613655565b5050565b601f8211156136b85761368981613562565b61369284613577565b810160208510156136a1578190505b6136b56136ad85613577565b830182613654565b50505b505050565b600082821c905092915050565b60006136db600019846008026136bd565b1980831691505092915050565b60006136f483836136ca565b9150826002028217905092915050565b61370d82612551565b67ffffffffffffffff81111561372657613725612895565b5b6137308254612ab2565b61373b828285613677565b600060209050601f83116001811461376e576000841561375c578287015190505b61376685826136e8565b8655506137ce565b601f19841661377c86613562565b60005b828110156137a45784890151825560018201915060208501945060208101905061377f565b868310156137c157848901516137bd601f8916826136ca565b8355505b6001600288020188555050505b505050505050565b7f4552433732313a20617070726f766520746f2063616c6c657200000000000000600082015250565b600061380c60198361255c565b9150613817826137d6565b602082019050919050565b6000602082019050818103600083015261383b816137ff565b9050919050565b7f4552433732313a207472616e7366657220746f206e6f6e20455243373231526560008201527f63656976657220696d706c656d656e7465720000000000000000000000000000602082015250565b600061389e60328361255c565b91506138a982613842565b604082019050919050565b600060208201905081810360008301526138cd81613891565b9050919050565b7f4552433732314d657461646174613a2055524920717565727920666f72206e6f60008201527f6e6578697374656e7420746f6b656e0000000000000000000000000000000000602082015250565b6000613930602f8361255c565b915061393b826138d4565b604082019050919050565b6000602082019050818103600083015261395f81613923565b9050919050565b600081519050919050565b600082825260208201905092915050565b600061398d82613966565b6139978185613971565b93506139a781856020860161256d565b6139b0816125a0565b840191505092915050565b60006080820190506139d060008301876126a1565b6139dd60208301866126a1565b6139ea6040830185612737565b81810360608301526139fc8184613982565b905095945050505050565b600081519050613a16816124c2565b92915050565b600060208284031215613a3257613a3161248c565b5b6000613a4084828501613a07565b91505092915050565b7f4e487b7100000000000000000000000000000000000000000000000000000000600052601260045260246000fd5b6000613a838261260c565b9150613a8e8361260c565b925082613a9e57613a9d613a49565b5b828204905092915050565b6000613ab48261260c565b9150613abf8361260c565b925082613acf57613ace613a49565b5b828206905092915050565b7f4e487b7100000000000000000000000000000000000000000000000000000000600052603260045260246000fd5b7f4552433732313a206d696e7420746f20746865207a65726f2061646472657373600082015250565b6000613b3f60208361255c565b9150613b4a82613b09565b602082019050919050565b60006020820190508181036000830152613b6e81613b32565b9050919050565b7f4552433732313a20746f6b656e20616c7265616479206d696e74656400000000600082015250565b6000613bab601c8361255c565b9150613bb682613b75565b602082019050919050565b60006020820190508181036000830152613bda81613b9e565b905091905056fea2646970667358221220e92aad2176c5c97f8a618f22d47c2a741523f01e2625b6682ab8d2fc95aa2d6964736f6c634300080f0033",
  "immutableReferences": {},
  "source": "// SPDX-License-Identifier: MIT\r\npragma solidity ^0.8.0;\r\n\r\nimport \"@openzeppelin/contracts/token/ERC721/extensions/ERC721URIStorage.sol\";\r\nimport \"@openzeppelin/contracts/security/ReentrancyGuard.sol\";\r\nimport \"@openzeppelin/contracts/access/Ownable.sol\";\r\nimport \"@openzeppelin/contracts/utils/math/SafeMath.sol\";\r\n\r\ncontract EventTicketNFT is ERC721URIStorage, ReentrancyGuard, Ownable {\r\n    using SafeMath for uint;\r\n    \r\n    //State variables to store event details\r\n    string public eventName;\r\n    string public eventSymbol;\r\n    string public description;\r\n    string public eventURI;\r\n    uint64 public ticketSupply;\r\n    uint256 public ticketPrice;\r\n    bool public saleEnd;\r\n    address payable withdrawalAddress;\r\n\r\n    //Ticketcount vaiable is used to maintain the number tickets sold\r\n    uint ticketCount;\r\n\r\n    //Set the event details when deploying the smart contract\r\n    constructor(\r\n        string memory _eventName, \r\n        string memory _eventSymbol,\r\n        string memory _description,\r\n        string memory _eventURI,\r\n        uint64 _ticketSupply, \r\n        uint256 _ticketPrice\r\n    ) ERC721(_eventName, _eventSymbol)\r\n    {\r\n        eventName = _eventName;\r\n        eventSymbol = _eventSymbol;\r\n        description = _description;\r\n        eventURI = _eventURI;\r\n        ticketSupply = _ticketSupply;\r\n        ticketPrice = _ticketPrice;\r\n        \r\n        //Set saleend to false until total supply tickets sold\r\n        saleEnd = false;\r\n        \r\n        //Set the withdraw address as deployer address\r\n        withdrawalAddress = payable(msg.sender);\r\n    }\r\n    \r\n    event BalanceWithdrawn(address _by, address _to, uint256 _amount);\r\n    \r\n    //Modifier to check the totalsypply tickets are sold\r\n    modifier isOpen() {\r\n        require (!saleEnd, \"All tickets Sold\");\r\n        _;\r\n    } \r\n    \r\n    event test(uint);\r\n    //Payable fucntion to mint new ticket whenever user sends Ether this smart contrct address\r\n    //Payable fucntion to mint new ticket whenever user sends Ether this smart contrct address\r\n    function buyEventTicket() \r\n    external \r\n    payable \r\n    isOpen\r\n    nonReentrant \r\n    {    \r\n\r\n        require((msg.value >= ticketPrice),\"not enough money\");\r\n        emit test(ticketPrice);\r\n        //this fucntion sell one ticket per user - transfer the remaining ether to the sender itself\r\n        if(msg.value > ticketPrice)\r\n        {\r\n\r\n            address payable senderAddress = payable(msg.sender);\r\n            uint balance = msg.value.sub(ticketPrice);\r\n             emit test(ticketPrice);\r\n            senderAddress.transfer(balance);\r\n        }\r\n        //increment the ticket count\r\n        ticketCount ++;\r\n        emit test(ticketCount);\r\n\r\n        //Check still tickets are available - if not set the saleEnd to true\r\n        uint tempCount = ticketCount + 1;\r\n        if (tempCount > ticketSupply)\r\n        {\r\n             saleEnd = true;\r\n        }\r\n\r\n        //Mint the new ticket for the sender\r\n        _safeMint(msg.sender, ticketCount);\r\n\r\n        //Assign the eventURI to the minted ticket\r\n        _setTokenURI(ticketCount, eventURI);\r\n        \r\n    }\r\n\r\n    //Returns the status of Eventticket sale\r\n    function getStatus() \r\n    public \r\n    view \r\n    returns (bool) \r\n    {\r\n        return saleEnd;\r\n    }\r\n   \r\n    //Event organizer who added the event can call this fucntion and withdraw the ether for the sold tickets\r\n    function withdrawBalance() \r\n    public \r\n    onlyOwner \r\n    {\r\n        uint256 _contractBalance = uint256(address(this).balance);\r\n        withdrawalAddress.transfer(_contractBalance);\r\n        emit BalanceWithdrawn(msg.sender,withdrawalAddress,_contractBalance);\r\n    }\r\n\r\n}\r\n\r\n     ",
  "sourcePath": "D:\\banu\\FTProject\\Code\\NFT_Event_Assignment\\SC\\contracts\\EventTicketNFT.sol",
  "compiler": {
    "name": "solc",
    "version": "0.8.15+commit.e14f2714.Emscripten.clang"
  },
  "schemaVersion": "3.4.4",
  "updatedAt": "2022-07-18T07:15:21.327Z",
  "devdoc": {
    "kind": "dev",
    "methods": {
      "approve(address,uint256)": {
        "details": "See {IERC721-approve}."
      },
      "balanceOf(address)": {
        "details": "See {IERC721-balanceOf}."
      },
      "getApproved(uint256)": {
        "details": "See {IERC721-getApproved}."
      },
      "isApprovedForAll(address,address)": {
        "details": "See {IERC721-isApprovedForAll}."
      },
      "name()": {
        "details": "See {IERC721Metadata-name}."
      },
      "owner()": {
        "details": "Returns the address of the current owner."
      },
      "ownerOf(uint256)": {
        "details": "See {IERC721-ownerOf}."
      },
      "renounceOwnership()": {
        "details": "Leaves the contract without owner. It will not be possible to call `onlyOwner` functions anymore. Can only be called by the current owner. NOTE: Renouncing ownership will leave the contract without an owner, thereby removing any functionality that is only available to the owner."
      },
      "safeTransferFrom(address,address,uint256)": {
        "details": "See {IERC721-safeTransferFrom}."
      },
      "safeTransferFrom(address,address,uint256,bytes)": {
        "details": "See {IERC721-safeTransferFrom}."
      },
      "setApprovalForAll(address,bool)": {
        "details": "See {IERC721-setApprovalForAll}."
      },
      "supportsInterface(bytes4)": {
        "details": "See {IERC165-supportsInterface}."
      },
      "symbol()": {
        "details": "See {IERC721Metadata-symbol}."
      },
      "tokenURI(uint256)": {
        "details": "See {IERC721Metadata-tokenURI}."
      },
      "transferFrom(address,address,uint256)": {
        "details": "See {IERC721-transferFrom}."
      },
      "transferOwnership(address)": {
        "details": "Transfers ownership of the contract to a new account (`newOwner`). Can only be called by the current owner."
      }
    },
    "version": 1
  },
  "userdoc": {
    "kind": "user",
    "methods": {},
    "version": 1
  }
}