{
  "contractName": "INRC",
  "abi": [
    {
      "inputs": [
        {
          "internalType": "address",
          "name": "_USDCTokenAddress",
          "type": "address"
        }
      ],
      "stateMutability": "nonpayable",
      "type": "constructor"
    },
    {
      "anonymous": false,
      "inputs": [
        {
          "indexed": true,
          "internalType": "address",
          "name": "owner",
          "type": "address"
        },
        {
          "indexed": true,
          "internalType": "address",
          "name": "spender",
          "type": "address"
        },
        {
          "indexed": false,
          "internalType": "uint256",
          "name": "value",
          "type": "uint256"
        }
      ],
      "name": "Approval",
      "type": "event"
    },
    {
      "anonymous": false,
      "inputs": [
        {
          "indexed": true,
          "internalType": "address",
          "name": "previousOwner",
          "type": "address"
        },
        {
          "indexed": true,
          "internalType": "address",
          "name": "newOwner",
          "type": "address"
        }
      ],
      "name": "OwnershipTransferred",
      "type": "event"
    },
    {
      "anonymous": false,
      "inputs": [
        {
          "indexed": true,
          "internalType": "address",
          "name": "from",
          "type": "address"
        },
        {
          "indexed": true,
          "internalType": "address",
          "name": "to",
          "type": "address"
        },
        {
          "indexed": false,
          "internalType": "uint256",
          "name": "value",
          "type": "uint256"
        }
      ],
      "name": "Transfer",
      "type": "event"
    },
    {
      "inputs": [
        {
          "internalType": "address",
          "name": "owner",
          "type": "address"
        },
        {
          "internalType": "address",
          "name": "spender",
          "type": "address"
        }
      ],
      "name": "allowance",
      "outputs": [
        {
          "internalType": "uint256",
          "name": "",
          "type": "uint256"
        }
      ],
      "stateMutability": "view",
      "type": "function"
    },
    {
      "inputs": [
        {
          "internalType": "address",
          "name": "spender",
          "type": "address"
        },
        {
          "internalType": "uint256",
          "name": "amount",
          "type": "uint256"
        }
      ],
      "name": "approve",
      "outputs": [
        {
          "internalType": "bool",
          "name": "",
          "type": "bool"
        }
      ],
      "stateMutability": "nonpayable",
      "type": "function"
    },
    {
      "inputs": [
        {
          "internalType": "address",
          "name": "account",
          "type": "address"
        }
      ],
      "name": "balanceOf",
      "outputs": [
        {
          "internalType": "uint256",
          "name": "",
          "type": "uint256"
        }
      ],
      "stateMutability": "view",
      "type": "function"
    },
    {
      "inputs": [],
      "name": "decimals",
      "outputs": [
        {
          "internalType": "uint8",
          "name": "",
          "type": "uint8"
        }
      ],
      "stateMutability": "view",
      "type": "function"
    },
    {
      "inputs": [
        {
          "internalType": "address",
          "name": "spender",
          "type": "address"
        },
        {
          "internalType": "uint256",
          "name": "subtractedValue",
          "type": "uint256"
        }
      ],
      "name": "decreaseAllowance",
      "outputs": [
        {
          "internalType": "bool",
          "name": "",
          "type": "bool"
        }
      ],
      "stateMutability": "nonpayable",
      "type": "function"
    },
    {
      "inputs": [
        {
          "internalType": "address",
          "name": "spender",
          "type": "address"
        },
        {
          "internalType": "uint256",
          "name": "addedValue",
          "type": "uint256"
        }
      ],
      "name": "increaseAllowance",
      "outputs": [
        {
          "internalType": "bool",
          "name": "",
          "type": "bool"
        }
      ],
      "stateMutability": "nonpayable",
      "type": "function"
    },
    {
      "inputs": [],
      "name": "name",
      "outputs": [
        {
          "internalType": "string",
          "name": "",
          "type": "string"
        }
      ],
      "stateMutability": "view",
      "type": "function"
    },
    {
      "inputs": [],
      "name": "owner",
      "outputs": [
        {
          "internalType": "address",
          "name": "",
          "type": "address"
        }
      ],
      "stateMutability": "view",
      "type": "function"
    },
    {
      "inputs": [],
      "name": "renounceOwnership",
      "outputs": [],
      "stateMutability": "nonpayable",
      "type": "function"
    },
    {
      "inputs": [],
      "name": "symbol",
      "outputs": [
        {
          "internalType": "string",
          "name": "",
          "type": "string"
        }
      ],
      "stateMutability": "view",
      "type": "function"
    },
    {
      "inputs": [],
      "name": "totalSupply",
      "outputs": [
        {
          "internalType": "uint256",
          "name": "",
          "type": "uint256"
        }
      ],
      "stateMutability": "view",
      "type": "function"
    },
    {
      "inputs": [
        {
          "internalType": "address",
          "name": "to",
          "type": "address"
        },
        {
          "internalType": "uint256",
          "name": "amount",
          "type": "uint256"
        }
      ],
      "name": "transfer",
      "outputs": [
        {
          "internalType": "bool",
          "name": "",
          "type": "bool"
        }
      ],
      "stateMutability": "nonpayable",
      "type": "function"
    },
    {
      "inputs": [
        {
          "internalType": "address",
          "name": "from",
          "type": "address"
        },
        {
          "internalType": "address",
          "name": "to",
          "type": "address"
        },
        {
          "internalType": "uint256",
          "name": "amount",
          "type": "uint256"
        }
      ],
      "name": "transferFrom",
      "outputs": [
        {
          "internalType": "bool",
          "name": "",
          "type": "bool"
        }
      ],
      "stateMutability": "nonpayable",
      "type": "function"
    },
    {
      "inputs": [
        {
          "internalType": "address",
          "name": "newOwner",
          "type": "address"
        }
      ],
      "name": "transferOwnership",
      "outputs": [],
      "stateMutability": "nonpayable",
      "type": "function"
    },
    {
      "inputs": [
        {
          "internalType": "uint256",
          "name": "amount",
          "type": "uint256"
        }
      ],
      "name": "mintToken",
      "outputs": [],
      "stateMutability": "nonpayable",
      "type": "function"
    },
    {
      "inputs": [
        {
          "internalType": "uint256",
          "name": "amount",
          "type": "uint256"
        }
      ],
      "name": "RedeemToken",
      "outputs": [],
      "stateMutability": "nonpayable",
      "type": "function"
    },
    {
      "inputs": [
        {
          "internalType": "uint256",
          "name": "amount",
          "type": "uint256"
        }
      ],
      "name": "withdrawBalance",
      "outputs": [],
      "stateMutability": "nonpayable",
      "type": "function"
    }
  ],
  "bytecode": "0x60806040523480156200001157600080fd5b50604051620025e4380380620025e4833981810160405281019062000037919062000269565b6040518060400160405280600481526020017f494e5243000000000000000000000000000000000000000000000000000000008152506040518060400160405280600481526020017f494e5243000000000000000000000000000000000000000000000000000000008152508160039081620000b4919062000515565b508060049081620000c6919062000515565b505050620000e9620000dd6200013160201b60201c565b6200013960201b60201c565b80600660006101000a81548173ffffffffffffffffffffffffffffffffffffffff021916908373ffffffffffffffffffffffffffffffffffffffff16021790555050620005fc565b600033905090565b6000600560009054906101000a900473ffffffffffffffffffffffffffffffffffffffff16905081600560006101000a81548173ffffffffffffffffffffffffffffffffffffffff021916908373ffffffffffffffffffffffffffffffffffffffff1602179055508173ffffffffffffffffffffffffffffffffffffffff168173ffffffffffffffffffffffffffffffffffffffff167f8be0079c531659141344cd1fd0a4f28419497f9722a3daafe3b4186f6b6457e060405160405180910390a35050565b600080fd5b600073ffffffffffffffffffffffffffffffffffffffff82169050919050565b6000620002318262000204565b9050919050565b620002438162000224565b81146200024f57600080fd5b50565b600081519050620002638162000238565b92915050565b600060208284031215620002825762000281620001ff565b5b6000620002928482850162000252565b91505092915050565b600081519050919050565b7f4e487b7100000000000000000000000000000000000000000000000000000000600052604160045260246000fd5b7f4e487b7100000000000000000000000000000000000000000000000000000000600052602260045260246000fd5b600060028204905060018216806200031d57607f821691505b602082108103620003335762000332620002d5565b5b50919050565b60008190508160005260206000209050919050565b60006020601f8301049050919050565b600082821b905092915050565b6000600883026200039d7fffffffffffffffffffffffffffffffffffffffffffffffffffffffffffffffff826200035e565b620003a986836200035e565b95508019841693508086168417925050509392505050565b6000819050919050565b6000819050919050565b6000620003f6620003f0620003ea84620003c1565b620003cb565b620003c1565b9050919050565b6000819050919050565b6200041283620003d5565b6200042a6200042182620003fd565b8484546200036b565b825550505050565b600090565b6200044162000432565b6200044e81848462000407565b505050565b5b8181101562000476576200046a60008262000437565b60018101905062000454565b5050565b601f821115620004c5576200048f8162000339565b6200049a846200034e565b81016020851015620004aa578190505b620004c2620004b9856200034e565b83018262000453565b50505b505050565b600082821c905092915050565b6000620004ea60001984600802620004ca565b1980831691505092915050565b6000620005058383620004d7565b9150826002028217905092915050565b62000520826200029b565b67ffffffffffffffff8111156200053c576200053b620002a6565b5b62000548825462000304565b620005558282856200047a565b600060209050601f8311600181146200058d576000841562000578578287015190505b620005848582620004f7565b865550620005f4565b601f1984166200059d8662000339565b60005b82811015620005c757848901518255600182019150602085019450602081019050620005a0565b86831015620005e75784890151620005e3601f891682620004d7565b8355505b6001600288020188555050505b505050505050565b611fd8806200060c6000396000f3fe608060405234801561001057600080fd5b506004361061010b5760003560e01c8063715018a6116100a2578063a9059cbb11610071578063a9059cbb146102bc578063c634d032146102ec578063da76d5cd14610308578063dd62ed3e14610324578063f2fde38b146103545761010b565b8063715018a6146102465780638da5cb5b1461025057806395d89b411461026e578063a457c2d71461028c5761010b565b8063313ce567116100de578063313ce567146101ac57806339509351146101ca5780636a964338146101fa57806370a08231146102165761010b565b806306fdde0314610110578063095ea7b31461012e57806318160ddd1461015e57806323b872dd1461017c575b600080fd5b610118610370565b6040516101259190611407565b60405180910390f35b610148600480360381019061014391906114c2565b610402565b604051610155919061151d565b60405180910390f35b610166610425565b6040516101739190611547565b60405180910390f35b61019660048036038101906101919190611562565b61042f565b6040516101a3919061151d565b60405180910390f35b6101b461045e565b6040516101c191906115d1565b60405180910390f35b6101e460048036038101906101df91906114c2565b610467565b6040516101f1919061151d565b60405180910390f35b610214600480360381019061020f91906115ec565b61049e565b005b610230600480360381019061022b9190611619565b6105dd565b60405161023d9190611547565b60405180910390f35b61024e610625565b005b610258610639565b6040516102659190611655565b60405180910390f35b610276610663565b6040516102839190611407565b60405180910390f35b6102a660048036038101906102a191906114c2565b6106f5565b6040516102b3919061151d565b60405180910390f35b6102d660048036038101906102d191906114c2565b61076c565b6040516102e3919061151d565b60405180910390f35b610306600480360381019061030191906115ec565b61078f565b005b610322600480360381019061031d91906115ec565b610858565b005b61033e60048036038101906103399190611670565b6108c3565b60405161034b9190611547565b60405180910390f35b61036e60048036038101906103699190611619565b61094a565b005b60606003805461037f906116df565b80601f01602080910402602001604051908101604052809291908181526020018280546103ab906116df565b80156103f85780601f106103cd576101008083540402835291602001916103f8565b820191906000526020600020905b8154815290600101906020018083116103db57829003601f168201915b5050505050905090565b60008061040d6109cd565b905061041a8185856109d5565b600191505092915050565b6000600254905090565b60008061043a6109cd565b9050610447858285610b9e565b610452858585610c2a565b60019150509392505050565b60006012905090565b6000806104726109cd565b905061049381858561048485896108c3565b61048e919061173f565b6109d5565b600191505092915050565b60006104ce600a6104c0670de0b6b3a764000085610ea990919063ffffffff16565b610ebf90919063ffffffff16565b905060006104f960026104eb606485610ebf90919063ffffffff16565b610ebf90919063ffffffff16565b9050600061052a670de0b6b3a764000061051c8486610ed590919063ffffffff16565b610ebf90919063ffffffff16565b9050600660009054906101000a900473ffffffffffffffffffffffffffffffffffffffff1673ffffffffffffffffffffffffffffffffffffffff1663a9059cbb33836040518363ffffffff1660e01b8152600401610589929190611795565b6020604051808303816000875af11580156105a8573d6000803e3d6000fd5b505050506040513d601f19601f820116820180604052508101906105cc91906117ea565b506105d73385610eeb565b50505050565b60008060008373ffffffffffffffffffffffffffffffffffffffff1673ffffffffffffffffffffffffffffffffffffffff168152602001908152602001600020549050919050565b61062d6110c1565b610637600061113f565b565b6000600560009054906101000a900473ffffffffffffffffffffffffffffffffffffffff16905090565b606060048054610672906116df565b80601f016020809104026020016040519081016040528092919081815260200182805461069e906116df565b80156106eb5780601f106106c0576101008083540402835291602001916106eb565b820191906000526020600020905b8154815290600101906020018083116106ce57829003601f168201915b5050505050905090565b6000806107006109cd565b9050600061070e82866108c3565b905083811015610753576040517f08c379a000000000000000000000000000000000000000000000000000000000815260040161074a90611889565b60405180910390fd5b61076082868684036109d5565b60019250505092915050565b6000806107776109cd565b9050610784818585610c2a565b600191505092915050565b600660009054906101000a900473ffffffffffffffffffffffffffffffffffffffff1673ffffffffffffffffffffffffffffffffffffffff166323b872dd3330846040518463ffffffff1660e01b81526004016107ee939291906118a9565b6020604051808303816000875af115801561080d573d6000803e3d6000fd5b505050506040513d601f19601f8201168201806040525081019061083191906117ea565b506000610848600a83610ea990919063ffffffff16565b90506108543382611205565b5050565b6108606110c1565b60004790508181101561087257600080fd5b60003390508073ffffffffffffffffffffffffffffffffffffffff166108fc849081150290604051600060405180830381858888f193505050501580156108bd573d6000803e3d6000fd5b50505050565b6000600160008473ffffffffffffffffffffffffffffffffffffffff1673ffffffffffffffffffffffffffffffffffffffff16815260200190815260200160002060008373ffffffffffffffffffffffffffffffffffffffff1673ffffffffffffffffffffffffffffffffffffffff16815260200190815260200160002054905092915050565b6109526110c1565b600073ffffffffffffffffffffffffffffffffffffffff168173ffffffffffffffffffffffffffffffffffffffff16036109c1576040517f08c379a00000000000000000000000000000000000000000000000000000000081526004016109b890611952565b60405180910390fd5b6109ca8161113f565b50565b600033905090565b600073ffffffffffffffffffffffffffffffffffffffff168373ffffffffffffffffffffffffffffffffffffffff1603610a44576040517f08c379a0000000000000000000000000000000000000000000000000000000008152600401610a3b906119e4565b60405180910390fd5b600073ffffffffffffffffffffffffffffffffffffffff168273ffffffffffffffffffffffffffffffffffffffff1603610ab3576040517f08c379a0000000000000000000000000000000000000000000000000000000008152600401610aaa90611a76565b60405180910390fd5b80600160008573ffffffffffffffffffffffffffffffffffffffff1673ffffffffffffffffffffffffffffffffffffffff16815260200190815260200160002060008473ffffffffffffffffffffffffffffffffffffffff1673ffffffffffffffffffffffffffffffffffffffff168152602001908152602001600020819055508173ffffffffffffffffffffffffffffffffffffffff168373ffffffffffffffffffffffffffffffffffffffff167f8c5be1e5ebec7d5bd14f71427d1e84f3dd0314c0f7b2291e5b200ac8c7c3b92583604051610b919190611547565b60405180910390a3505050565b6000610baa84846108c3565b90507fffffffffffffffffffffffffffffffffffffffffffffffffffffffffffffffff8114610c245781811015610c16576040517f08c379a0000000000000000000000000000000000000000000000000000000008152600401610c0d90611ae2565b60405180910390fd5b610c2384848484036109d5565b5b50505050565b600073ffffffffffffffffffffffffffffffffffffffff168373ffffffffffffffffffffffffffffffffffffffff1603610c99576040517f08c379a0000000000000000000000000000000000000000000000000000000008152600401610c9090611b74565b60405180910390fd5b600073ffffffffffffffffffffffffffffffffffffffff168273ffffffffffffffffffffffffffffffffffffffff1603610d08576040517f08c379a0000000000000000000000000000000000000000000000000000000008152600401610cff90611c06565b60405180910390fd5b610d13838383611364565b60008060008573ffffffffffffffffffffffffffffffffffffffff1673ffffffffffffffffffffffffffffffffffffffff16815260200190815260200160002054905081811015610d99576040517f08c379a0000000000000000000000000000000000000000000000000000000008152600401610d9090611c98565b60405180910390fd5b8181036000808673ffffffffffffffffffffffffffffffffffffffff1673ffffffffffffffffffffffffffffffffffffffff16815260200190815260200160002081905550816000808573ffffffffffffffffffffffffffffffffffffffff1673ffffffffffffffffffffffffffffffffffffffff1681526020019081526020016000206000828254610e2c919061173f565b925050819055508273ffffffffffffffffffffffffffffffffffffffff168473ffffffffffffffffffffffffffffffffffffffff167fddf252ad1be2c89b69c2b068fc378daa952ba7f163c4a11628f55a4df523b3ef84604051610e909190611547565b60405180910390a3610ea3848484611369565b50505050565b60008183610eb79190611cb8565b905092915050565b60008183610ecd9190611d41565b905092915050565b60008183610ee39190611d72565b905092915050565b600073ffffffffffffffffffffffffffffffffffffffff168273ffffffffffffffffffffffffffffffffffffffff1603610f5a576040517f08c379a0000000000000000000000000000000000000000000000000000000008152600401610f5190611e18565b60405180910390fd5b610f6682600083611364565b60008060008473ffffffffffffffffffffffffffffffffffffffff1673ffffffffffffffffffffffffffffffffffffffff16815260200190815260200160002054905081811015610fec576040517f08c379a0000000000000000000000000000000000000000000000000000000008152600401610fe390611eaa565b60405180910390fd5b8181036000808573ffffffffffffffffffffffffffffffffffffffff1673ffffffffffffffffffffffffffffffffffffffff1681526020019081526020016000208190555081600260008282546110439190611d72565b92505081905550600073ffffffffffffffffffffffffffffffffffffffff168373ffffffffffffffffffffffffffffffffffffffff167fddf252ad1be2c89b69c2b068fc378daa952ba7f163c4a11628f55a4df523b3ef846040516110a89190611547565b60405180910390a36110bc83600084611369565b505050565b6110c96109cd565b73ffffffffffffffffffffffffffffffffffffffff166110e7610639565b73ffffffffffffffffffffffffffffffffffffffff161461113d576040517f08c379a000000000000000000000000000000000000000000000000000000000815260040161113490611f16565b60405180910390fd5b565b6000600560009054906101000a900473ffffffffffffffffffffffffffffffffffffffff16905081600560006101000a81548173ffffffffffffffffffffffffffffffffffffffff021916908373ffffffffffffffffffffffffffffffffffffffff1602179055508173ffffffffffffffffffffffffffffffffffffffff168173ffffffffffffffffffffffffffffffffffffffff167f8be0079c531659141344cd1fd0a4f28419497f9722a3daafe3b4186f6b6457e060405160405180910390a35050565b600073ffffffffffffffffffffffffffffffffffffffff168273ffffffffffffffffffffffffffffffffffffffff1603611274576040517f08c379a000000000000000000000000000000000000000000000000000000000815260040161126b90611f82565b60405180910390fd5b61128060008383611364565b8060026000828254611292919061173f565b92505081905550806000808473ffffffffffffffffffffffffffffffffffffffff1673ffffffffffffffffffffffffffffffffffffffff16815260200190815260200160002060008282546112e7919061173f565b925050819055508173ffffffffffffffffffffffffffffffffffffffff16600073ffffffffffffffffffffffffffffffffffffffff167fddf252ad1be2c89b69c2b068fc378daa952ba7f163c4a11628f55a4df523b3ef8360405161134c9190611547565b60405180910390a361136060008383611369565b5050565b505050565b505050565b600081519050919050565b600082825260208201905092915050565b60005b838110156113a857808201518184015260208101905061138d565b838111156113b7576000848401525b50505050565b6000601f19601f8301169050919050565b60006113d98261136e565b6113e38185611379565b93506113f381856020860161138a565b6113fc816113bd565b840191505092915050565b6000602082019050818103600083015261142181846113ce565b905092915050565b600080fd5b600073ffffffffffffffffffffffffffffffffffffffff82169050919050565b60006114598261142e565b9050919050565b6114698161144e565b811461147457600080fd5b50565b60008135905061148681611460565b92915050565b6000819050919050565b61149f8161148c565b81146114aa57600080fd5b50565b6000813590506114bc81611496565b92915050565b600080604083850312156114d9576114d8611429565b5b60006114e785828601611477565b92505060206114f8858286016114ad565b9150509250929050565b60008115159050919050565b61151781611502565b82525050565b6000602082019050611532600083018461150e565b92915050565b6115418161148c565b82525050565b600060208201905061155c6000830184611538565b92915050565b60008060006060848603121561157b5761157a611429565b5b600061158986828701611477565b935050602061159a86828701611477565b92505060406115ab868287016114ad565b9150509250925092565b600060ff82169050919050565b6115cb816115b5565b82525050565b60006020820190506115e660008301846115c2565b92915050565b60006020828403121561160257611601611429565b5b6000611610848285016114ad565b91505092915050565b60006020828403121561162f5761162e611429565b5b600061163d84828501611477565b91505092915050565b61164f8161144e565b82525050565b600060208201905061166a6000830184611646565b92915050565b6000806040838503121561168757611686611429565b5b600061169585828601611477565b92505060206116a685828601611477565b9150509250929050565b7f4e487b7100000000000000000000000000000000000000000000000000000000600052602260045260246000fd5b600060028204905060018216806116f757607f821691505b60208210810361170a576117096116b0565b5b50919050565b7f4e487b7100000000000000000000000000000000000000000000000000000000600052601160045260246000fd5b600061174a8261148c565b91506117558361148c565b9250827fffffffffffffffffffffffffffffffffffffffffffffffffffffffffffffffff0382111561178a57611789611710565b5b828201905092915050565b60006040820190506117aa6000830185611646565b6117b76020830184611538565b9392505050565b6117c781611502565b81146117d257600080fd5b50565b6000815190506117e4816117be565b92915050565b600060208284031215611800576117ff611429565b5b600061180e848285016117d5565b91505092915050565b7f45524332303a2064656372656173656420616c6c6f77616e63652062656c6f7760008201527f207a65726f000000000000000000000000000000000000000000000000000000602082015250565b6000611873602583611379565b915061187e82611817565b604082019050919050565b600060208201905081810360008301526118a281611866565b9050919050565b60006060820190506118be6000830186611646565b6118cb6020830185611646565b6118d86040830184611538565b949350505050565b7f4f776e61626c653a206e6577206f776e657220697320746865207a65726f206160008201527f6464726573730000000000000000000000000000000000000000000000000000602082015250565b600061193c602683611379565b9150611947826118e0565b604082019050919050565b6000602082019050818103600083015261196b8161192f565b9050919050565b7f45524332303a20617070726f76652066726f6d20746865207a65726f2061646460008201527f7265737300000000000000000000000000000000000000000000000000000000602082015250565b60006119ce602483611379565b91506119d982611972565b604082019050919050565b600060208201905081810360008301526119fd816119c1565b9050919050565b7f45524332303a20617070726f766520746f20746865207a65726f20616464726560008201527f7373000000000000000000000000000000000000000000000000000000000000602082015250565b6000611a60602283611379565b9150611a6b82611a04565b604082019050919050565b60006020820190508181036000830152611a8f81611a53565b9050919050565b7f45524332303a20696e73756666696369656e7420616c6c6f77616e6365000000600082015250565b6000611acc601d83611379565b9150611ad782611a96565b602082019050919050565b60006020820190508181036000830152611afb81611abf565b9050919050565b7f45524332303a207472616e736665722066726f6d20746865207a65726f20616460008201527f6472657373000000000000000000000000000000000000000000000000000000602082015250565b6000611b5e602583611379565b9150611b6982611b02565b604082019050919050565b60006020820190508181036000830152611b8d81611b51565b9050919050565b7f45524332303a207472616e7366657220746f20746865207a65726f206164647260008201527f6573730000000000000000000000000000000000000000000000000000000000602082015250565b6000611bf0602383611379565b9150611bfb82611b94565b604082019050919050565b60006020820190508181036000830152611c1f81611be3565b9050919050565b7f45524332303a207472616e7366657220616d6f756e742065786365656473206260008201527f616c616e63650000000000000000000000000000000000000000000000000000602082015250565b6000611c82602683611379565b9150611c8d82611c26565b604082019050919050565b60006020820190508181036000830152611cb181611c75565b9050919050565b6000611cc38261148c565b9150611cce8361148c565b9250817fffffffffffffffffffffffffffffffffffffffffffffffffffffffffffffffff0483118215151615611d0757611d06611710565b5b828202905092915050565b7f4e487b7100000000000000000000000000000000000000000000000000000000600052601260045260246000fd5b6000611d4c8261148c565b9150611d578361148c565b925082611d6757611d66611d12565b5b828204905092915050565b6000611d7d8261148c565b9150611d888361148c565b925082821015611d9b57611d9a611710565b5b828203905092915050565b7f45524332303a206275726e2066726f6d20746865207a65726f2061646472657360008201527f7300000000000000000000000000000000000000000000000000000000000000602082015250565b6000611e02602183611379565b9150611e0d82611da6565b604082019050919050565b60006020820190508181036000830152611e3181611df5565b9050919050565b7f45524332303a206275726e20616d6f756e7420657863656564732062616c616e60008201527f6365000000000000000000000000000000000000000000000000000000000000602082015250565b6000611e94602283611379565b9150611e9f82611e38565b604082019050919050565b60006020820190508181036000830152611ec381611e87565b9050919050565b7f4f776e61626c653a2063616c6c6572206973206e6f7420746865206f776e6572600082015250565b6000611f00602083611379565b9150611f0b82611eca565b602082019050919050565b60006020820190508181036000830152611f2f81611ef3565b9050919050565b7f45524332303a206d696e7420746f20746865207a65726f206164647265737300600082015250565b6000611f6c601f83611379565b9150611f7782611f36565b602082019050919050565b60006020820190508181036000830152611f9b81611f5f565b905091905056fea264697066735822122083109369d3ae2726e8695943b9d21cd6f24f02a852cbea6a42d3668e8e37efb264736f6c634300080f0033",
  "immutableReferences": {},
  "source": "// SPDX-License-Identifier: MIT\r\npragma solidity ^0.8.0;\r\n\r\nimport \"@openzeppelin/contracts/token/ERC20/ERC20.sol\";\r\nimport \"@openzeppelin/contracts/access/Ownable.sol\";\r\nimport \"@openzeppelin/contracts/utils/math/SafeMath.sol\";\r\n\r\npragma solidity ^0.8.0;\r\n\r\ncontract INRC is ERC20 ,Ownable {\r\n     using SafeMath for uint;\r\n    // USDT token\r\n    IERC20 USDCTokenAddress;\r\n       // !% fee for every PEG token mint and burn\r\n\r\n    \r\n    constructor(address _USDCTokenAddress) public ERC20('INRC', 'INRC')\r\n    {\r\n        USDCTokenAddress = IERC20(_USDCTokenAddress);\r\n    \r\n    }\r\n       \r\n    function mintToken(uint256 amount) public {\r\n        // Transfer amount USDC tokens from msg.sender to contract\r\n        USDCTokenAddress.transferFrom(msg.sender, address(this), amount);\r\n       \r\n        uint PEGToken = amount.mul(10);\r\n\r\n        // Mint tokens to msg.sender\r\n        _mint(msg.sender,PEGToken);\r\n        \r\n        \r\n    }\r\n\r\n    \r\n    function RedeemToken (uint256 amount) public {\r\n       \r\n        // Transfer amount USDC tokens from msg.sender to contract\r\n\r\n        //Calculate the Proportional amount of USDC        \r\n        uint tempAmount = (amount.mul(10**18)).div(10);\r\n        \r\n        //Calculate Fee\r\n        uint fee = (tempAmount.div(10**2)).div(2);\r\n\r\n        //Deduct fee from USDC \r\n        uint Originaltoken = (tempAmount.sub(fee)).div(10**18);\r\n        \r\n        // Send USDC amount tokens to msg.sender\r\n        USDCTokenAddress.transfer(msg.sender, Originaltoken);\r\n        \r\n        \r\n        // Burn INRC tokens of msg.sender\r\n        _burn(msg.sender,amount);\r\n    }\r\n\r\n    function withdrawBalance(uint256 amount) \r\n    public \r\n    onlyOwner \r\n    {\r\n        uint256 _contractBalance = uint256(address(this).balance);\r\n        require (_contractBalance >= amount);\r\n        address payable owner = payable(msg.sender);\r\n        owner.transfer(amount);\r\n       \r\n    }\r\n\r\n}\r\n\r\n     ",
  "sourcePath": "D:\\banu\\FTProject\\Code\\INRC\\Backend\\contracts\\INRCToken.sol",
  "compiler": {
    "name": "solc",
    "version": "0.8.15+commit.e14f2714.Emscripten.clang"
  },
  "schemaVersion": "3.4.4",
  "updatedAt": "2022-07-19T05:33:08.003Z",
  "devdoc": {
    "kind": "dev",
    "methods": {
      "allowance(address,address)": {
        "details": "See {IERC20-allowance}."
      },
      "approve(address,uint256)": {
        "details": "See {IERC20-approve}. NOTE: If `amount` is the maximum `uint256`, the allowance is not updated on `transferFrom`. This is semantically equivalent to an infinite approval. Requirements: - `spender` cannot be the zero address."
      },
      "balanceOf(address)": {
        "details": "See {IERC20-balanceOf}."
      },
      "decimals()": {
        "details": "Returns the number of decimals used to get its user representation. For example, if `decimals` equals `2`, a balance of `505` tokens should be displayed to a user as `5.05` (`505 / 10 ** 2`). Tokens usually opt for a value of 18, imitating the relationship between Ether and Wei. This is the value {ERC20} uses, unless this function is overridden; NOTE: This information is only used for _display_ purposes: it in no way affects any of the arithmetic of the contract, including {IERC20-balanceOf} and {IERC20-transfer}."
      },
      "decreaseAllowance(address,uint256)": {
        "details": "Atomically decreases the allowance granted to `spender` by the caller. This is an alternative to {approve} that can be used as a mitigation for problems described in {IERC20-approve}. Emits an {Approval} event indicating the updated allowance. Requirements: - `spender` cannot be the zero address. - `spender` must have allowance for the caller of at least `subtractedValue`."
      },
      "increaseAllowance(address,uint256)": {
        "details": "Atomically increases the allowance granted to `spender` by the caller. This is an alternative to {approve} that can be used as a mitigation for problems described in {IERC20-approve}. Emits an {Approval} event indicating the updated allowance. Requirements: - `spender` cannot be the zero address."
      },
      "name()": {
        "details": "Returns the name of the token."
      },
      "owner()": {
        "details": "Returns the address of the current owner."
      },
      "renounceOwnership()": {
        "details": "Leaves the contract without owner. It will not be possible to call `onlyOwner` functions anymore. Can only be called by the current owner. NOTE: Renouncing ownership will leave the contract without an owner, thereby removing any functionality that is only available to the owner."
      },
      "symbol()": {
        "details": "Returns the symbol of the token, usually a shorter version of the name."
      },
      "totalSupply()": {
        "details": "See {IERC20-totalSupply}."
      },
      "transfer(address,uint256)": {
        "details": "See {IERC20-transfer}. Requirements: - `to` cannot be the zero address. - the caller must have a balance of at least `amount`."
      },
      "transferFrom(address,address,uint256)": {
        "details": "See {IERC20-transferFrom}. Emits an {Approval} event indicating the updated allowance. This is not required by the EIP. See the note at the beginning of {ERC20}. NOTE: Does not update the allowance if the current allowance is the maximum `uint256`. Requirements: - `from` and `to` cannot be the zero address. - `from` must have a balance of at least `amount`. - the caller must have allowance for ``from``'s tokens of at least `amount`."
      },
      "transferOwnership(address)": {
        "details": "Transfers ownership of the contract to a new account (`newOwner`). Can only be called by the current owner."
      }
    },
    "version": 1
  },
  "userdoc": {
    "kind": "user",
    "methods": {},
    "version": 1
  }
}